:020000040040BA
:10000000C0284020ED2D40009D2E40009D2E400038
:100010009D2E40009D2E40009D2E400000000000BF
:100020000000000000000000000000009D2E4000C5
:100030009D2E4000000000009D2E40009D2E40009F
:100040009D2E40009D2E40009D2E400069044000E2
:100050009D2E40009D2E40009D2E40009D2E400074
:100060009D2E400000000000ED294000052A4000C0
:100070001D2A40009D2E40009D2E40009D2E4000D8
:10008000352A40004D2A40009D2E40009D2E400004
:100090009D2E40009D2E40009D2E40009D2E400034
:1000A0009D2E40009D2E40009D2E40009D2E400024
:1000B0009D2E40009D2E40009D2E40009D2E400014
:1000C0009D2E40009D2E40009D2E40009D2E400004
:1000D0009D2E40009D2E40009D2E40009D2E4000F4
:1000E0009D2E40009D2E40009D2E40009D2E4000E4
:1000F0009D2E40009D2E40009D2E40009D2E4000D4
:100100009D2E40009D2E40009D2E40009D2E4000C3
:100110009D2E4000000000000000000000000000D4
:100120009D2E40009D2E40009D2E40009D2E4000A3
:100130009D2E40009D2E40009D2E40009D2E400093
:100140009D2E40009D2E40009D2E40009D2E400083
:100150009D2E40009D2E40009D2E40009D2E400073
:100160009D2E40009D2E400010B5054C237833B9DC
:10017000044B13B10448AFF300800123237010BD7A
:100180003404402000000000C0A944000C4B43B1DF
:100190000C480D4910B5AFF300800C48036823B933
:1001A00010BD0A48036833B97047094B002BF7D0DC
:1001B000BDE810401847064B002BF5D0184700BF8C
:1001C00000000000C0A9440038044020C0A9440039
:1001D0000000000080B483B000AF78600B467B80E5
:1001E0007A88074B1B68134343F480227B681A60AC
:1001F000002318460C37BD465DF8047B704700BFEE
:100200005004402080B483B000AF78600B46FB7090
:10021000FB78002B0DD0104B1B6843F080730E4A07
:1002200013607B681A680C4B1B681A437B681A6062
:100230000CE0094B1B6823F08073074A13607B684E
:100240001A68054B1B681A437B681A6000BF0C379D
:10025000BD465DF8047B70475004402080B485B0F3
:1002600000AF786039607B681B68FB60FA683B68A8
:100270001343FB60064B1B68FA681343FB607B6803
:10028000FA681A6000BF1437BD465DF8047B7047FA
:100290005004402080B485B000AF786039600023FE
:1002A000FB607B681B68FB603B68DB43FA681340BC
:1002B000FB60074B1B68FA681343FB607B68FA68B6
:1002C0001A6000BF1437BD465DF8047B704700BF5D
:1002D0005004402080B485B000AF78607B689B6894
:1002E000FB6002E07B689B68FB607B689A68FB6848
:1002F0009A42F7D1FB6818461437BD465DF8047B77
:10030000704780B483B000AF78607B68DB681846C4
:100310000C37BD465DF8047B7047000080B584B0A3
:1003200000AF786039607B681B6803F48033FB6042
:100330004FF480310D480E4B98473B68002B04D199
:100340007B684FF0FF325A6003E03B685A1E7B68BF
:100350005A60FB68002B04D04FF480310348054BF2
:100360009847002318461037BD4680BD30180E4010
:10037000950240005D02400080B483B000AF0346A8
:10038000FB71094997F907305B09FA7902F01F02FE
:10039000012000FA02F241F8232000BF0C37BD46CD
:1003A0005DF8047B704700BF00E100E080B483B0DB
:1003B00000AF0346FB71094997F907305B09FA79E9
:1003C00002F01F02012000FA02F2203341F823203C
:1003D00000BF0C37BD465DF8047B704700E100E0CC
:1003E00080B483B000AF0346FB71094997F9073029
:1003F0005B09FA7902F01F02012000FA02F2603371
:1004000041F8232000BF0C37BD465DF8047B7047E0
:1004100000E100E080B483B000AF03463960FB71B7
:1004200097F90730002B0BDA0D49FB7903F00F0326
:10043000043B3A68D2B25201D2B20B441A7609E0B8
:10044000084997F907303A68D2B25201D2B20B4448
:1004500083F8002300BF0C37BD465DF8047B70476E
:1004600000ED00E000E100E080B582B000AF0A4896
:100470000A4B984778607B6803F00103002B07D094
:100480004FF480710648074B9847074B01221A70BA
:1004900000BF0837BD4680BD30180E400303400042
:1004A00000120E40AD0440005404402080B582B0DC
:1004B00000AF7860396039687868094B984703461F
:1004C000002B04D039687868064B984703E03968F8
:1004D0007868054B984700BF0837BD4680BD00BF10
:1004E0008D264000B12340009523400098B500AF11
:1004F0000C20064B984700234FF480724FF0405178
:100500000348044CA04700BF98BD00BF292D400000
:1005100000120E40C125400080B584B000AF0346F4
:100520003960FB8000211848184B9847FB88194612
:100530001548174B98471448164B9847F86000BF6A
:100540001148144B98470246FB689A42F8D03A6823
:10055000FB68134419460C480F4B984703200F4B78
:10056000984703200E4B9847002103200D4B9847D6
:1005700003200D4B98474FF4803103480B4B9847AD
:1005800000BF1037BD4680BD30180E400502400048
:10059000D5014000D50240001D034000AD034000DE
:1005A000E103400015044000790340005D02400073
:1005B00098B500AF0D4B4FF4A0721A600B4B4FF47F
:1005C000F0725A60094B0A4A9A60084B084ADA608E
:1005D0000648084B984740F2DF1340F23F120021D3
:1005E0000020054CA04700BF98BD00BF88084020F0
:1005F000FCFCFC00451040009112400090B58BB00F
:1006000002AFF860B9607A603B60BB68FB612EE0C6
:10061000FB691B78FB76FB7EFA68127A9B1A7B617A
:10062000FB685B7AFA7E9A421ED8FB685A687B693F
:10063000DB0013443B61786839683B695B685B6841
:100640001A463B695B689B681C463B695B681B6894
:10065000009323460A4CA0473B695B685A683B6B92
:1006600013447A6813447B60FB690133FB61FB69C7
:100670001B78002BCCD100BF2437BD4690BD00BFF6
:100680006D13400090B587B002AF2A4B4FF4004283
:100690005A60294B9847294B9847294B9847294B33
:1006A00098470023FB60284B01221A70264B1B78C9
:1006B000DBB2002BFAD0FB68002B22D140F2DF1313
:1006C00040F23F1200210020204CA047012300935C
:1006D000322332221E491F481F4CA047012300939A
:1006E000642332221D491E481B4CA047022300935D
:1006F000C82332221B491C48174CA0470123FB602A
:1007000009E040F2DF1340F23F12002100200F4CBD
:10071000A0470023FB604FF480437B8104237B6070
:100720007B8979681846114B9847074B00221A704D
:10073000BCE700BF50180E400D1B40001D204000BC
:10074000B1054000ED0440005404402091124000E7
:1007500078A9440038564000FD05400080A94400B7
:10076000B01E430090A944006CA944001905400044
:1007700080B483B000AF78607B68072B25D801A2D6
:1007800052F823F0A5074000AB074000B107400036
:10079000B7074000BB074000BF074000C307400049
:1007A000C70740004FF4FA4310E04FF400430DE058
:1007B0004FF400430AE0084B08E0084B06E0084B02
:1007C00004E0074B02E0064B00E0002318460C371C
:1007D000BD465DF8047B704700093D0000127A00B9
:1007E000001BB70080B500AF0620054B98470246B6
:1007F00013469B0013449A001344184680BD00BF63
:100800007107400080B500AF024B984703465B0874
:10081000184680BDE507400080B483B000AF786023
:100820007B6880221A6000BF0C37BD465DF8047BF0
:10083000704780B483B000AF78607B685B6843F03A
:1008400001027B685A6000BF0C37BD465DF8047B2F
:10085000704780B483B000AF78607B685B6823F03A
:1008600002027B685A6000BF0C37BD465DF8047B0E
:10087000704780B483B000AF78607B685B6823F01A
:1008800004027B685A6000BF0C37BD465DF8047BEC
:10089000704780B483B000AF78607B685B6803F01A
:1008A0000403002B01D0012300E0002318460C377D
:1008B000BD465DF8047B704780B483B000AF7860BC
:1008C0007B685B6843F010027B685A6000BF0C379E
:1008D000BD465DF8047B704780B483B000AF78609C
:1008E0007B685B6823F080027B685A6000BF0C372E
:1008F000BD465DF8047B704780B483B000AF78607C
:100900000B467B807A887B68DA6000BF0C37BD4677
:100910005DF8047B704780B483B000AF78607B687B
:100920009B689BB218460C37BD465DF8047B704748
:1009300080B483B000AF78607B681B6903F002036A
:10094000002B01D0012300E0002318460C37BD46E0
:100950005DF8047B704780B483B000AF78607B683B
:100960001A6940F20123134040F20122934201D15F
:10097000012300E0002318460C37BD465DF8047BD8
:100980007047000080B582B000AF78600B46FB7006
:10099000FB789BB219467868024B984700BF08372E
:1009A000BD4680BDF908400080B582B000AF7860D8
:1009B00039607868044B98470346DAB23B681A708E
:1009C00000BF0837BD4680BD1709400080B582B022
:1009D00000AF78607868104B984778680F4B98475D
:1009E00078680F4B984778680E4B984778680E4B9D
:1009F0009847002178680D4B984778680C4B9847CA
:100A000078680C4B9847002178680B4B984700BFDB
:100A10000837BD4680BD00BF65144000190840007E
:100A200033084000B9084000D9084000A114400034
:100A30005308400073084000D514400090B587B0BB
:100A400000AFF860B9603B601346FB71204B9847DC
:100A50000346194638681F4B98470346FB82BB681C
:100A6000196800230022F8681B4CA047BB681B686C
:100A700008221946F868194B9847BB681B68FA8A20
:100A8000D2B21946F868164B9847BB681B68082213
:100A90001946F868134B9847BB681968FB795B08DF
:100AA000DBB21A46F868104B9847BB681968FB79A7
:100AB00003F00103002B0CBF01230023DBB21A4615
:100AC000F8680A4B984700BF1C37BD4690BD00BF71
:100AD0000508400015174000AF174000CB16400036
:100AE000511740002516400085154000D5154000DF
:100AF00080B582B000AF786039607868104B984755
:100B00000346002B0AD03B681B680F2B14D83B68A8
:100B10001B68194678680B4B98470DE03B681B68CB
:100B2000032B09D83B681B68012202FA03F3DB435D
:100B300019467868034B984700BF0837BD4680BD0B
:100B400093084000A114400080B588B000AFF86061
:100B5000B9607A6043F69823FB610023BB6121E012
:100B600043F69823FB6107E0FB695A1EFA61002BEC
:100B700002D16FF0020319E0F8680E4B9847034664
:100B8000002BF1D0BA68BB6913441B78FB75FB7D61
:100B90001946F868084B9847BB690133BB617B680D
:100BA000013B7B607B68002BDAD10023184620379D
:100BB000BD4680BD310940008509400080B588B040
:100BC00000AFF860B9607A6043F69823FB610023B8
:100BD000BB6138E043F69823FB6107E0FB695A1ECE
:100BE000FA61002B02D16FF0020330E0F8681A4B73
:100BF00098470346002BF1D0FF21F868174B984720
:100C000043F69823FB6107E0FB695A1EFA61002B4B
:100C100002D16FF002031AE0F868114B98470346BF
:100C2000002BF1D007F117031946F8680D4B9847D0
:100C3000BA68BB691344FA7D1A70BB690133BB61A2
:100C40007B68013B7B607B68002BC3D10023184687
:100C50002037BD4680BD00BF3109400085094000F6
:100C600057094000A909400080B483B000AF786004
:100C70007B6801221A6000BF0C37BD465DF8047B1B
:100C8000704780B483B000AF786039607B683A68A1
:100C90005A6100BF0C37BD465DF8047B7047000009
:100CA00090B583B000AF06200A4B9847002303227B
:100CB0002C210948094CA04700237B6002E07B6897
:100CC00001337B607B68FE2BF9D900BF0C37BD4632
:100CD00090BD00BF31274000008000400515400056
:100CE00080B584B000AF786039600620094B984722
:100CF0003A6879680848094B98470023FB6002E08E
:100D0000FB680133FB60FB68FE2BF9D900BF10378D
:100D1000BD4680BD0127400000800040490B4000D7
:100D200090B587B000AF0346B9607A60FB730620C8
:100D3000144B9847FB7B99B2002303221248134CB3
:100D4000A04700237B6102E07B6901337B617B6903
:100D5000FE2BF9D97B68002B10D006200C4B98474E
:100D60007A68B96808480B4B984700237B6102E01A
:100D70007B6901337B617B695E2BF9D900BF1C372E
:100D8000BD4690BD31274000008000400515400061
:100D900001274000490B400080B584B000AF00231C
:100DA000BB608123BB7000237B700323FB6048E0A2
:100DB000BB1C01221946FB20264B9847BB78013308
:100DC000DBB2BB7000237B6002E07B6801337B6099
:100DD0007B68FE2BF9D900220021D3201D4B9847B8
:100DE00006201D4B9847FB1C012219461B481C4B33
:100DF000984700237B6002E07B6801337B607B685F
:100E0000FE2BF9D9FB781A46FB68013BDB0002FA9E
:100E100003F31A46BB681343BB607B1C01221946CF
:100E2000FB200C4B984700237B6002E07B6801337A
:100E30007B607B6840F6FE729342F7D9FB68013B0A
:100E4000FB60FB68002BB3D1BB6818461037BD466A
:100E500080BD00BF210D4000012740000080004000
:100E6000BD0B400080B485B000AF78600023FB600C
:100E70000CE00023FB6002E0FB680133FB60FB68D1
:100E8000074A9342F8D9FB680133FB60FA687B6834
:100E90009A42EED300BF1437BD465DF8047B70471D
:100EA0009F86010080B487B000AFF860B9607A60B7
:100EB0003B60FB681B68B3F5A07F03D3FB6840F27F
:100EC0003F121A607B681B68B3F5A07F03D37B6871
:100ED00040F23F121A60BB681B68B3F5F07F03D382
:100EE000BB6840F2DF121A603B681B68B3F5F07F05
:100EF00003D33B6840F2DF121A60FB681A687B6814
:100F00001B689A4209D9FB681B687B617B681A6879
:100F1000FB681A607B687A691A60BB681A683B686C
:100F20001B689A4209D9BB681B687B613B681A68D9
:100F3000BB681A603B687A691A6000BF1C37BD46FF
:100F40005DF8047B7047000080B584B000AF0346B5
:100F5000FB71FB79002B02D0E823FB7301E04823EF
:100F6000FB7307F10F03012219463620024B984705
:100F700000BF1037BD4680BD210D400090B587B041
:100F800000AF0446084611461A462346FB80034636
:100F9000BB800B467B8013463B8000237B61042390
:100FA0007B61FB887B827A88FB8813449BB2013B80
:100FB0009BB23B82BB88FB813A88BB8813449BB2BF
:100FC000013B9BB2BB8107F112035B783B7207F1D7
:100FD00012031B787B7207F110035B78BB7207F179
:100FE00010031B78FB7207F108037A6919462A205F
:100FF000134B9847002200210020114B984707F11E
:101000000E035B783B7207F10E031B787B7207F1CE
:101010000C035B78BB7207F10C031B78FB7207F1C2
:1010200008037A6919462B20054B984700220021B6
:101030000020034B984700BF1C37BD4690BD00BF42
:10104000210D400090B589B002AF78600323FB60AA
:101050004348444B984707F10C0100230093424B4F
:1010600003223F48414CA047002203213C48404B0B
:10107000984707F10C03194639483E4B98473848C2
:101080003D4B9847012136483C4B984700220021B0
:1010900001203B4B9847C8203A4B9847002200213B
:1010A0001120374B9847C820364B9847364B984706
:1010B00078617B6949F28842934201D001234AE07A
:1010C0004823FB7407F113030122194636202C4BE9
:1010D000984764202B4B98470423FB7407F11303B4
:1010E00001221946CF20264B98476420254B98476C
:1010F0000623FB7407F11303012219463A20204B03
:10110000984764201F4B98470022002113201C4B56
:10111000984764201B4B98471C4B98476420194BF9
:10112000984700201A4B98476420164B98477B68D5
:101130001B689AB27B685B689BB200210020154C4B
:10114000A0477B689B681846134B984700210020F6
:10115000124B9847002318461C37BD4690BD00BF70
:1011600000800040CD094000002D31013D0A4000C3
:1011700025164000F10A4000690C4000830C400035
:10118000210D4000650E4000990D4000A111400066
:10119000490F40007D0F4000B91140000D12400082
:1011A00080B500AF002200212920024B984700BFE4
:1011B00080BD00BF210D400080B485B000AF7860D5
:1011C0000023FB6016E0FB685A1CFA607A68120C78
:1011D000D1B20D4AD154FB685A1CFA607A68120ADF
:1011E000D1B2094AD154FB685A1CFA607A68D1B26C
:1011F000054AD154FB68B3F5707FE4D300BF1437C0
:10120000BD465DF8047B70475804402080B584B02B
:1012100000AF03460A46FB801346BB800023FB60F9
:101220000423FB60BB1D5B783B72BB1D1B787B728C
:10123000BB1D5B78BB72BB1D1B78FB7207F10803FB
:10124000FA6819462A20114B9847002200210020F5
:101250000E4B98473B1D5B783B723B1D1B787B72A6
:101260003B1D5B78BB723B1D1B78FB7207F10803CB
:10127000FA6819462B20054B9847002200210020D0
:10128000024B984700BF1037BD4680BD210D40007E
:1012900090B587B000AFF860B9607A603B603B46BC
:1012A0003A1D07F1080107F10C002A4CA047FB6822
:1012B00098B2BB6899B27B689AB2FB689BB2D31AAA
:1012C0009BB201339CB23B689AB2BB689BB2D31A03
:1012D0009BB201339BB222461F4CA0471F4B98473D
:1012E0007A68FB68D31A01333968BA688A1A0132FE
:1012F00002FB03F33B613B69194AA2FB03231B0A70
:101300007B6104E04FF470711648174B98477B6976
:101310005A1E7A61002BF5D13969114BA3FB0123C9
:101320001A0A13469B0013449B01CA1A13465B001A
:10133000134419460B480C4B98474FF4F0734FF485
:10134000A07200210020044CA04700BF1C37BD46FE
:1013500090BD00BFA50E40007D0F4000A10C4000D5
:10136000CDCCCCCC58044020E10C400090B58BB0E3
:1013700000AFF860B9607A603B60FB683B62BB68B5
:10138000FB61FA687B681344013BBB61BA683B6848
:101390001344013B7B6107F1140307F1180207F1C5
:1013A0001C0107F120001B4CA0473B6A98B2FB6967
:1013B00099B2BB699AB23B6A9BB2D31A9BB2013312
:1013C0009CB27B699AB2FB699BB2D31A9BB2013380
:1013D0009BB22246104CA047BA693B6AD31A79697E
:1013E000FA698A1A02FB03F37B627A6A13465B008E
:1013F00013441A46B96B2C20084B98474FF4F073EE
:101400004FF4A07200210020034CA04700BF2C37EE
:10141000BD4690BDA50E40007D0F4000210D40004F
:1014200080B483B000AF78607B685B6803F0020330
:10143000002B01D0012300E0002318460C37BD46E5
:101440005DF8047B7047000080B582B000AF786023
:101450007868034B984700BF0837BD4680BD00BF82
:10146000292D400080B582B000AF78607B68094AC2
:10147000934203D11520084B984706E07B68074A42
:10148000934202D12A20044B984700BF0837BD463B
:1014900080BD00BF0080004049144000008005402E
:1014A00080B483B000AF786039607B685B6823F4F8
:1014B00070227B685A607B685A683B681B0403F49F
:1014C00070231A437B685A6000BF0C37BD465DF835
:1014D000047B704780B483B000AF786039607B686C
:1014E0005B6823F07F427B685A607B685A683B6880
:1014F0001B061A437B685A6000BF0C37BD465DF877
:10150000047B704780B584B000AF78600846114610
:101510001A4603467B800B467B7013463B7043F6AE
:101520009823FB6006E0FB685A1EFA60002B01D18D
:10153000012320E07B681B6903F00203002BF2D03B
:1015400078680F4B98470346002B0ED07A887B783B
:101550001B0403F470231343BB603B78002B06D0BD
:10156000BB6843F08073BB6001E07B88BB607B6835
:10157000BA68DA60002318461037BD4680BD00BF48
:101580002114400080B485B000AFF860B9607A6083
:101590007B68002B0CD0FB68BA680C3253F8223001
:1015A00043F00101FB68BA680C3243F822100BE0EB
:1015B000FB68BA680C3253F8223023F00101FB6853
:1015C000BA680C3243F8221000BF1437BD465DF8EC
:1015D000047B704780B485B000AFF860B9607A6072
:1015E0007B68002B0CD0FB68BA680C3253F82230B1
:1015F00043F00201FB68BA680C3243F822100BE09A
:10160000FB68BA680C3253F8223023F00201FB6801
:10161000BA680C3243F8221000BF1437BD465DF89B
:10162000047B704780B485B000AFF860B9607A6021
:101630007B68042B18D1FB68BA680C3253F822304F
:1016400023F00801FB68BA680C3243F82210FB68EB
:10165000BA680C3253F8223043F00401FB68BA68D0
:101660000C3243F822102AE07B68002B18D1FB686B
:10167000BA680C3253F8223023F00801FB68BA68CC
:101680000C3243F82210FB68BA680C3253F822304F
:1016900023F00401FB68BA680C3243F822100EE014
:1016A0007B68082B0BD1FB68BA680C3253F82230E8
:1016B00043F00801FB68BA680C3243F8221000BFFF
:1016C0001437BD465DF8047B704780B485B000AF29
:1016D000F860B9607A60FB68BA680C3253F822305F
:1016E00023F0F001FB68BA680C3243F82210FB6863
:1016F000BA680C3253F822207B6842EA0301FB6887
:10170000BA680C3243F8221000BF1437BD465DF8AA
:10171000047B704780B485B000AF786039603A6868
:101720007B6813445A1E7B68B2FBF3F3FB60FB68D3
:10173000002B02DDFB68FF2B02DD4FF0FF3301E0E1
:10174000FB681BB218461437BD465DF8047B704732
:1017500080B485B000AFF860B9601346FB71FB79C7
:10176000002B02D14FF0FF331BE0FB68BA680C324C
:1017700053F8223023F47F41FB68BA680C3243F8F7
:101780002210FB68BA680C3253F82220FB791B0246
:101790009BB242EA0301FB68BA680C3243F822109C
:1017A000002318461437BD465DF8047B704780B4AB
:1017B00085B000AFF860B96011461A460B46FB7160
:1017C0001346BB71FB68BA680C3253F8223099B2E9
:1017D000FB68BA680C3243F82210FB68BA680C3216
:1017E00053F82220FB791B0403F47F03B97909061F
:1017F0000B4342EA0301FB68BA680C3243F822103B
:1018000000BF1437BD465DF8047B704780B582B0D9
:1018100000AF78607B68072B31D801A252F823F023
:101820007D18400041184000491840005118400000
:1018300059184000611840006918400073184000B2
:101840000020114B98471AE001200F4B984716E0F3
:1018500000200E4B984712E010200C4B98470EE0EA
:1018600020200A4B98470AE03E210020084B984769
:1018700005E03E210120064B984700E000BF00BF75
:101880000837BD4680BD00BF652B4000D12B40000E
:10189000412C400080B582B000AF78607B68072B98
:1018A00026D801A252F823F0C9184000CD184000F4
:1018B000CD184000DF184000DF184000DF1840005E
:1018C000DF184000DF184000012312E00B4B98475F
:1018D0000346002B14BF01230023DBB209E0084BB1
:1018E00098470346002B14BF01230023DBB200E01E
:1018F000002318460837BD4680BD00BF9D2B400021
:10190000B92C400080B483B000AF78607B68072BAF
:1019100025D801A252F823F0391940003F194000A0
:10192000451940004B1940004F1940005319400021
:10193000571940005B1940004FF4FA4310E04FF490
:1019400000430DE04FF400430AE0084B08E0084B69
:1019500006E0084B04E0074B02E0064B00E00023E2
:1019600018460C37BD465DF8047B704700093D0002
:1019700000127A00001BB70080B582B000AF0346AA
:10198000FB7100BFFB791846054B9847034683F06F
:101990000103DBB2002BF5D100BF0837BD4680BD87
:1019A0009518400080B586B000AFF8607A603B6063
:1019B0000B46FB727B68002B07D13B68002B04D1E0
:1019C000FB684FF470021A6019E0FB7A18460E4B60
:1019D000984702467B68B2FBF3F37B617B693A6808
:1019E00002FB03F37B613B68013B1A04074B134086
:1019F0007A68D2B2134343F47C52FB681A6000BF8A
:101A00001837BD4680BD00BF051940000000FF0724
:101A100080B582B000AF786039603B68002B08D198
:101A2000094B9847094A7B681B6843F0005393624F
:101A300005E0064A7B681B6843F48033D36100BF2E
:101A40000837BD4680BD00BFD52C400000060E40C3
:101A500080B582B000AF78607B68002B03D1054B66
:101A60009847034602E0044B984703461846083758
:101A7000BD4680BDF12C40000D2D400080B582B0E8
:101A800000AF0346FB71FB79033B042B08D8FB79BD
:101A90001846064B9847FB791846054B984700E0D7
:101AA00000BF00BF0837BD4680BD00BF0D18400015
:101AB0007919400080B582B000AF786000BF7868C7
:101AC000044B98470346002BF9D0002318460837EB
:101AD000BD4680BD511A400080B500AF0620054BC1
:101AE0009847024613469B0013449A001344184635
:101AF00080BD00BF0519400080B500AF024B98477C
:101B00000346184680BD00BFD91A400090B583B087
:101B100000AF1348134B98470620134B9847381DC6
:101B2000192301220621114CA0473B1D0021184614
:101B30000F4B984700200F4B984702200E4B9847B9
:101B400000200E4B98470E4B98470E4B9847034684
:101B50001846044B984700BF0C37BD4690BD00BFE8
:101B6000000E27070D3040007D1A4000A5194000E7
:101B7000111A4000B51A4000652A4000E12A4000D1
:101B8000A52E4000F91A400080B400AFBFF34F8F7C
:101B9000BFF36F8F094B0022C3F85022074A074B4F
:101BA0005B6943F400335361BFF34F8FBFF36F8F13
:101BB00000BFBD465DF8047B704700BF00ED00E04C
:101BC00080B48BB000AF264BD3F88030FB61FB694B
:101BD0005B0BC3F30E037B62FB6903F00703043363
:101BE000BB61FB69DB08C3F309037B617B69BB60F5
:101BF000BB68B3FA83F37B607B68DBB203F01F033F
:101C00003B61BFF34F8F7B693B623A6A3B6902FAE3
:101C100003F319467A6ABB6902FA03F30B43FB60CC
:101C20000F4AFB68C2F860323B6A5A1E3A62002BC8
:101C3000EBD17B6A5A1E7A62002BE4D1BFF34F8F3F
:101C4000074A074B5B6943F480335361BFF34F8FFF
:101C5000BFF36F8F00BF2C37BD465DF8047B704724
:101C600000ED00E080B582B000AF78607868034B8B
:101C7000984700BF0837BD4680BD00BF292D4000F2
:101C800080B500AF0A20084B98470B20064B9847B9
:101C90000C20054B98471020034B98471120024B0E
:101CA000984700BF80BD00BF651C400080B489B06C
:101CB00000AF78607B68FB61FB69BB61BB695A0957
:101CC000FB697B617B6903F01F03012101FA03F3C8
:101CD0003A61FB603B69BB60BA68064B13445B0228
:101CE0001A46FB68536000BF2437BD465DF8047B8D
:101CF000704700BF0707200080B48DB000AF786048
:101D000039607B68FB623B68BB62FB6A7B627B6A13
:101D10005A09FB6A3B623B6A03F01F03012101FA87
:101D200003F3FA61BB61BB6A7B61FB693B613A69A2
:101D3000374B13445B02FB607B6903F00803002B05
:101D400003D0FB68BA695A6602E0FB68BA691A6692
:101D50007B6903F01003002B04D0FB68BA69C3F859
:101D6000942003E0FB68BA69C3F890207B6903F014
:101D70002003002B03D0FB68BA691A6502E0FB68F8
:101D8000BA695A657B6903F0C003002B03D0FB6876
:101D9000BA691A6202E0FB68BA695A627B6903F0A9
:101DA0008003002B04D0FB68BA69C3F8842003E0E9
:101DB000FB68BA69C3F880207B6903F00103002B3C
:101DC00006D0FB681A6FBB691A43FB681A6706E006
:101DD000FB681A6FBB69DB431A40FB681A677B69B3
:101DE00003F00203002B06D0FB685A6FBB691A434D
:101DF000FB685A6706E0FB685A6FBB69DB431A4011
:101E0000FB685A6700BF3437BD465DF8047B7047F6
:101E10000707200080B48DB000AF78600B46FB70E0
:101E20007B68FB62FB7887F82B30FB6A7B627B6AFE
:101E30003B623B6A5B09FB61FA69174B13445B0227
:101E4000BB6197F82B30012B09D1FB6A7B617B6961
:101E500003F01F0301229A40BB691A610CE097F856
:101E60002B30002B08D1FB6A3B613B6903F01F0359
:101E700001229A40BB695A61FB6AFB60FB6803F070
:101E80001F0301229A40BB69C3F8A02000BF34376A
:101E9000BD465DF8047B70470707200080B48BB017
:101EA00000AF78600B46FB707B687B62FB7887F83D
:101EB00023307B6AFB61FB69BB61BB695B097B61AA
:101EC0007A69104B13445B023B6197F82330002B77
:101ED00009D07B6AFB60FB6803F01F0301229A4074
:101EE0003B691A6308E07B6ABB60BB6803F01F03B1
:101EF00001229A403B695A6300BF2C37BD465DF80A
:101F0000047B70470707200080B48DB000AF786075
:101F10000B46FB707B68FB62FB7887F82B30FB6A13
:101F20007B627B6A5A09FB6A3B623B6A03F01F03D0
:101F3000012101FA03F3FA61BB6197F82B30FB75BD
:101F4000FB693B613A69234B13445B02FB60FB7DF9
:101F5000013B032B2ED801A252F823F0911F400021
:101F6000A31F40006D1F40007F1F4000FB68BA693F
:101F7000C3F8C420FB68BA69C3F8D0201FE0FB682F
:101F8000BA69C3F8C420FB68BA69C3F8D42016E064
:101F9000FB68BA69C3F8C020FB68BA69C3F8D020EF
:101FA0000DE0FB68BA69C3F8C020FB68BA69C3F8E2
:101FB000D42004E0FB68BA69C3F8B42003E0FB68EE
:101FC000BA69C3F8B02000BF3437BD465DF8047B62
:101FD000704700BF0707200080B400AFBFF34F8FEA
:101FE000BFF36F8F0C4A0C4BD3F8903223F00103F0
:101FF000C2F89032084A084BD3F8943223F0010318
:10200000C2F89432BFF34F8FBFF36F8F00BFBD464E
:102010005DF8047B704700BF00ED00E098B500AFAD
:10202000B04B4FF400425A60AF4B9847AF4B9847C4
:10203000AF4BB04A5A60AE4BAF4A5A60AF4B98476D
:10204000AF4B984701214820AE4B984701214820CB
:10205000AD4B984700210B20AA4B984788210B20B5
:10206000AA4B984702210B20A94B98470021152025
:10207000A64B98471520A74B9847A74AA64BD3F8DD
:10208000143143F01003C2F81431032124209F4B74
:10209000984724209F4B9847002103209B4B98474B
:1020A00003209C4B984700210420984B984704201C
:1020B000984B984700234FF400524FF060519748D7
:1020C000974CA04700234FF080424FF06051934857
:1020D000934CA0470123FF224FF000618F48904CA2
:1020E000A04701233F224FF000618E488C4CA0474F
:1020F00001234FF4C0324FF000618B48884CA04759
:1021000001234FF480724FF000618448844CA04753
:1021100001234FF400624FF000618048804CA047DB
:1021200001234FF400224FF0006180487C4CA0470F
:1021300000234FF400724FF080517848784CA0474C
:102140004FF4007175487A4B98474FF0C0511420F6
:10215000784B98474FF0C0517720764B98474FF017
:10216000C0516E20734B98474FF000614F20714B68
:1021700098474FF0C05170206E4B98474FF0C051B8
:1021800071206C4B98474FF0C0517D20694B9847A8
:102190004FF000615220674B98474FF0C0516F20BD
:1021A000644B98474FF000615420624B98474FF0C2
:1021B000006155205F4B98474FF0006156205D4B02
:1021C00098474FF0006157205A4B98474FF00061F5
:1021D0005820584B98474FF000615920554B98476D
:1021E0004FF000615A20534B98474FF000615B203D
:1021F000504B98474FF000615C204E4B98474FF092
:1022000000615D204B4B98474FF0C0516D20494B0A
:1022100098474FF000614020464B98474FF00061CF
:102220004120444B98474FF000614220414B984772
:102230004FF0006143203F4B98474FF0006144202E
:102240003C4B98474FF0006145203A4B98474FF080
:1022500000614620374B98474FF000614720354BCF
:1022600098474FF000618020324B98474FF0006153
:102270008120304B98474FF0006182202D4B9847CA
:102280004FF0006183202B4B98474FF00061842072
:10229000284B98474FF000618520264B98474FF018
:1022A00000610F20234B98474FF000611020214B15
:1022B0009847194B1022C3F824214FF08051742005
:1022C0001C4B98474FF0805175201A4B98474FF0A0
:1022D00080517620174B98474FF080517B20154B4B
:1022E000984729E050180E40891B4000C11B400050
:1022F000000C0E400C08005A0C07005AD91F400071
:10230000811C4000151E40009D1E4000F91C40002D
:10231000091F4000AD1C40000080084000120E4024
:10232000C125400000160E40000E0E4000140E4065
:1023300095234000612740004FF060511820084B62
:1023400098474FF060510620054B98474FF0605179
:102350005320034B98475320024B984700BF98BD2A
:10236000612740000127400080B485B000AFF860CD
:10237000B9607A607B68002B03D0FB68BA685A6644
:1023800002E0FB68BA681A6600BF1437BD465DF804
:10239000047B704780B483B000AF786039607B689D
:1023A0003A681A6300BF0C37BD465DF8047B70477E
:1023B00080B483B000AF786039607B683A685A6354
:1023C00000BF0C37BD465DF8047B704780B487B012
:1023D00000AFF860B9607A60FB687A685A64BB68DD
:1023E000B3F1C05F4AD0B3F1C05F08D8B3F1006F5A
:1023F00016D0B3F1805F2CD0002B69D064E0B3F12C
:10240000205F65D0B3F1205F03D8B3F1005F4AD0FD
:102410005AE0B3F1405F5BD0B3F1605F58D053E056
:10242000FB681B6F7B61FB681A6F7B68D9437B6914
:102430000B401A40FB681A67FB685B6F7B61FB68A7
:102440005A6F7B68D9437B690B401A40FB685A6717
:102450003AE0FB681B6F7B617A687B691A43FB6813
:102460001A67FB685B6F7B61FB685A6F7B68D943B7
:102470007B690B401A40FB685A6725E0FB681B6FBD
:102480007B61FB681A6F7B68D9437B690B401A40FC
:10249000FB681A67FB685B6F7B617A687B691A432C
:1024A000FB685A6710E0FB681B6F7B617A687B6989
:1024B0001A43FB681A67FB685B6F7B617A687B690C
:1024C0001A43FB685A6700BFFB687A685A6000E0ED
:1024D00000BF1C37BD465DF8047B704780B584B0F3
:1024E00000AFF860B9607A60B968F868194B98472E
:1024F0007B6803F001031A46B968F868164B9847E1
:102500007B6803F00A03002B03D0FB68BA681A62E9
:1025100002E0FB68BA685A627B6803F00203002B92
:1025200004D0FB68BA68C3F8802008E07B6803F039
:102530000803002B03D0FB68BA68C3F88420FB684B
:10254000BA685A61FB68BA681A6000BF1037BD46A6
:1025500080BD00BFB52640006923400080B584B02F
:1025600000AFF860B9607A603B60B968F868124BF8
:102570009847BA69B968F868104B98473B68002BD0
:1025800003D0FB68BA681A6502E0FB68BA685A654E
:102590007B68002B03D0FB68BA681A6302E0FB6813
:1025A000BA685A63FB68BA681A61FB68BA681A604D
:1025B00000BF1037BD4680BDB526400069234000EE
:1025C00090B587B002AFF860B9607A603B60BB68D5
:1025D000B3F1005F16D0B3F1005F09D8B3F1805FAB
:1025E00010D0B3F1C05F0DD0B3F1006F0AD03DE061
:1025F000B3F1405F1AD0B3F1605F17D0B3F1205F41
:102600000ED033E07A68B968F8681C4B98473B688D
:1026100003F001031A467968F868194B984727E0D8
:102620003A687968F868174B984721E0BB68B3F1BE
:10263000605F0CBF01230023DBB21A463B6803F046
:102640000403002B14BF01230023DBB219463B68AF
:1026500003F00103002B14BF01230023DBB200931E
:102660000B467968F868084CA04701E0002300E0B9
:10267000012318461437BD4690BD00BFCD2340004E
:1026800069234000DD2440005D25400080B483B014
:1026900000AF786039607B689A6B3B681340002B11
:1026A00001D1002300E0012318460C37BD465DF838
:1026B000047B704780B483B000AF786039607B687A
:1026C0003A685A6400BF0C37BD465DF8047B70471A
:1026D00080B483B000AF78607B68DB6C18460C3741
:1026E000BD465DF8047B704780B483B000AF78606E
:1026F0007B689B6C18460C37BD465DF8047B7047C1
:1027000080B584B000AF78607868084B9847F8606F
:102710007B6803F01F03012202FA03F31A46FB68E9
:102720001A6300BF1037BD4680BD00BF11294000AD
:1027300080B584B000AF78607868084B9847F8603F
:102740007B6803F01F03012202FA03F31A46FB68B9
:102750005A6300BF1037BD4680BD00BF112940003D
:1027600090B587B002AF786039607868634B98475E
:10277000F8603B6803F0F043B3F1005F67D0B3F15A
:10278000005F09D8B3F1805F2BD0B3F1C05F43D0B5
:10279000B3F1006F0AD0A9E0B3F1405F7ED0B3F18E
:1027A000605F7BD0B3F1205F6CD09FE07B6803F06B
:1027B0001F03012202FA03F31A464FF00061F86882
:1027C0004F4B98477B6803F01F03012202FA03F383
:1027D00019463B6803F001031A46F868494B9847CD
:1027E00086E07B6803F01F03012202FA03F31A4616
:1027F0004FF08051F868424B98477B6803F01F0305
:10280000012202FA03F319463B6803F001031A465A
:10281000F8683C4B98476BE07B6803F01F0301228C
:1028200002FA03F31A464FF0C051F868344B984748
:102830007B6803F01F03012202FA03F319463B6889
:1028400003F001031A46F8682E4B984750E07B6866
:1028500003F01F03012202FA03F31A464FF000515E
:10286000F868274B98477B6803F01F03012202FAA0
:1028700003F319463B6803F001031A46F868214B3D
:10288000984735E07B6803F01F03012202FA03F347
:102890003A681946F8681C4B984729E07B6803F0B2
:1028A0001F03012202FA03F319463B6803F0605349
:1028B000B3F1605F0CBF01230023DBB21A463B6813
:1028C00003F00403002B14BF01230023DBB21846DE
:1028D0003B6803F00103002B14BF01230023DBB28C
:1028E00000930346F868094CA04701E0002300E08C
:1028F000012318461437BD4690BD00BF1129400082
:10290000CD23400069234000DD2440005D254000C8
:1029100080B485B000AF78607B685A09054B1344DA
:102920005B02FB60FB6818461437BD465DF8047B0C
:10293000704700BF0707200080B584B000AF786003
:1029400039607868264B9847F8607868254B984737
:102950000246FB681340FB60FB68002B3CD0002361
:10296000BB6034E0204ABB681B0113441A683B6813
:102970009A4226D11C4ABB681B01134404331A68CF
:10298000FB681340002B1CD0174ABB681B01134483
:102990000C331B681449BA6812010A4410681249C2
:1029A000BA6812010A4404321268114698470E4A66
:1029B000BB681B01134404331B68DB43FA681340F4
:1029C000FB60BB680133BB60BB68062B03D8FB68A8
:1029D000002BC7D100E000BF00BF1037BD4680BD4F
:1029E000D1264000E92640001808402080B500AFFD
:1029F0000A210248024B984700BF80BD000E0E40DE
:102A00003929400080B500AF0B210248024B98479E
:102A100000BF80BD00100E403929400080B500AFD6
:102A20000C210248024B984700BF80BD00120E40A7
:102A30003929400080B500AF10210248024B984769
:102A400000BF80BD00140E403929400080B500AFA2
:102A500011210248024B984700BF80BD00160E406E
:102A60003929400080B483B000AF78607B68013BB7
:102A7000032B1AD801A252F823F000BF8D2A400080
:102A8000932A40009B2A4000A32A400000237B6039
:102A90000EE04FF480737B600AE04FF440737B607C
:102AA00006E04FF400737B6002E000237B6000BF10
:102AB0000A490A4B1B6B23F440727B6813430B6378
:102AC00000BF064B9B6E03F00803002BF9D000BF3C
:102AD0000C37BD465DF8047B704700BF00060E4012
:102AE00080B485B000AF78601D491D4B1B6B23F08F
:102AF00070027B6813430B634FF48053FB6007E065
:102B0000FB68002B01D1012323E0FB68013BFB6044
:102B1000134B9B6E03F00803002BF1D0104A104BAF
:102B20001B6B23F0030343F0020313634FF4805342
:102B3000FB6007E0FB68002B01D1012309E0FB6883
:102B4000013BFB60064B9B6E03F00803002BF1D0AA
:102B5000002318461437BD465DF8047B704700BF5C
:102B600000060E4080B483B000AF78607B68012B14
:102B700005D10749064B9A68064B13438B60044BFB
:102B8000054A1A6000BF0C37BD465DF8047B7047EC
:102B900010180E40000010A5080000A580B400AF7A
:102BA000094B5B6903F08003002B07D0074B9B6E3A
:102BB00003F08003002B01D0012300E0002318461E
:102BC000BD465DF8047B704710180E4000060E40AD
:102BD00080B483B000AF78601549154B1A6A154B65
:102BE00013430B6200BF124B9B6E03F40033002BA8
:102BF000F9D00F490E4B1A6A0F4B13407A681343F2
:102C000043F45C130B6200BF094B9B6E03F400336B
:102C1000002BF9D00649064B1A6A084B134043F4BF
:102C20005C130B6200BF0C37BD465DF8047B704738
:102C300000060E40080037008FFFC8FFFFFFC8FEE8
:102C400080B483B000AF786039607B68002B08D017
:102C50001349134B1B6A134A1A40134B13430B625D
:102C600018E00F490E4B1A6A104B13403A681202D3
:102C700092B21A430E4B13430B6200BF084B9B6E7C
:102C800003F00103002BF9D00549054B1A6A094BE3
:102C900013430B6200BF0C37BD465DF8047B7047E1
:102CA00000060E40FCFFC8FE02003701FCFFC8FF13
:102CB000010037000000370180B400AF044B9B6E69
:102CC00003F480331846BD465DF8047B704700BFAF
:102CD00000060E4080B400AF044B4FF000529A62E1
:102CE00000BFBD465DF8047B704700BF00060E4084
:102CF00080B400AF044B9B6E03F002031846BD4640
:102D00005DF8047B704700BF00060E4080B400AF42
:102D1000044B9B6E03F040031846BD465DF8047BF0
:102D2000704700BF00060E4080B485B000AF7860E9
:102D30000B4A7B6803F07F03C2F80C31084BD3F8D1
:102D40000C3143F01023FB60054AFB68C2F80C31DC
:102D5000002318461437BD465DF8047B704700BF5A
:102D600000060E4080B483B000AFEFF310837B60A9
:102D70007B68002B0CBF01230023DBB23B6072B6E3
:102D8000BFF35F8F044B00221A703B6818460C3764
:102D9000BD465DF8047B70470000402080B483B0DE
:102DA00000AF78607B68002B14BF01230023DBB2E7
:102DB00018460C37BD465DF8047B704780B582B07D
:102DC00000AF78607868074B98470346002B05D022
:102DD000054B01221A70BFF35F8F62B600BF083740
:102DE000BD4680BD9D2D40000000402080B584B0D0
:102DF00000AF1E4BFB601E4BBB60FA68BB689A427B
:102E00000CD007E0BB681A1DBA60FA68111DF960A2
:102E100012681A60BB68174A9342F3D3164BBB6023
:102E200004E0BB681A1DBA6000221A60BB68134A2E
:102E30009342F6D3124BFB60124AFB6823F07F03E8
:102E40009360114B98477860104A104B1B6843F40D
:102E500070031360BFF34F8FBFF36F8F78680C4B15
:102E600098470C4B98470C4B9847FEE7C0A9440085
:102E7000000040203404402034044020BC0840209E
:102E80000000400000ED00E0652D400088ED00E00E
:102E9000BD2D4000BD3040008506400080B400AF2D
:102EA000FEE7000080B400AF524B1B6B03F003033E
:102EB000012B14D0012B02D3022B38D07AE04E4BD9
:102EC0005B6903F08003002B04D04C4B4FF40042AD
:102ED0001A606FE0494B4FF4FA421A606AE0454BC2
:102EE0001B6A03F08073002B03D0444B444A1A60E2
:102EF00060E0424B434A1A603E4B1B6A03F070038A
:102F0000102B04D0202B08D0002B0ED00EE03B4B12
:102F10001B685B00394A136008E0384B1A68134697
:102F20005B001344354A136000E000BF42E0314BC0
:102F30001B6A03F08073002B03D0304B304A1A60B9
:102F40001CE02E4B2F4A1A602A4B1B6A03F07003B9
:102F5000102B04D0202B08D0002B0ED00EE0274BD6
:102F60001B685B00254A136008E0244B1A6813466F
:102F70005B001344214A136000E000BF1D4B1B6B34
:102F800003F00303022B14D11A4B9B6A1B0CC3F3EF
:102F90000A030133194A126802FB03F3174A13604C
:102FA000144B9B6ADBB2154A1268B2FBF3F3134A67
:102FB000136000BF0F4B1B6B03F07003702B08D125
:102FC0000E4B1B68104AA2FB03235B080B4A1360DD
:102FD0000AE0084B1B6B1B0903F00703074A126842
:102FE00022FA03F3054A136000BFBD465DF8047B77
:102FF000704700BF00060E4010180E40040040202D
:10300000001BB70000093D00ABAAAAAA80B483B098
:1030100000AF78607B681D4A934204D81C4B4FF088
:1030200080621A602BE07B681A4A934203D8184BDF
:10303000194A1A6023E07B68184A934203D8144B5C
:10304000174A1A601BE07B68164A934203D8104B5C
:10305000154A1A6013E07B68144A934204D80C4B5B
:103060004FF004221A600AE07B68114A934203D8A9
:10307000074B104A1A6002E0054B0F4A1A6000BF66
:103080000C37BD465DF8047B704700BFBFF35E019F
:10309000000C0E407FE7BD02000100043FDB1C0472
:1030A00000020004FFCE7B0500030004BFC2DA0665
:1030B0007FB63908000500040006000470B50F4E05
:1030C0000F4D761BB61018BF002405D0013455F8FB
:1030D000043B9847A642F9D10A4E0B4D761B47F0A8
:1030E0005DFCB61018BF002406D0013455F8043B2F
:1030F0009847A642F9D170BD70BD00BFA8A9440091
:10310000A8A94400B0A94400A8A94400024B13B1E7
:10311000024800F005B87047000000002D31400063
:10312000002301461A46184600F01EB838B50A4C6E
:103130000A4D641BA4100AD004F18043013B05EB47
:103140008305013C55F804399847002CF9D1BDE8B6
:10315000384047F02DBC00BFC0A94400BCA94400C2
:10316000704700BF704700BF2DE9F8432C4D06465D
:10317000286898460F469146FFF7F2FF294B1C68D6
:10318000D4F84831002B3ED05A681F2A1CDC02F1CB
:10319000010E76B103EB82010124C1F88890D3F8C7
:1031A000880194402043022EC3F88801C1F80881A9
:1031B00023D00232C3F804E0286843F82270FFF7F6
:1031C000D1FF0020BDE8F883174B0BB34FF4C87054
:1031D000AFF300800346D8B1D4F848210260002143
:1031E00041600A46C4F848014FF0010EC0F888114A
:1031F000C0F88C11002EDCD0CCE7D3F88C110C4336
:10320000C3F88C41D5E704F5A673C4F84831BBE791
:103210002868FFF7A7FF4FF0FF30BDE8F88300BF35
:103220003004402098A9440000000000FFFFFFFF89
:10323000FFFFFFFFFF000000FFFFFFFFFFFFFFFF9B
:10324000FFFFFFFFFFFFFFFFFFFF000000FFFFFF8B
:10325000000000FFFFFFFFFFFFFFFFFFFFFFFFFF7B
:10326000FFFF000000FFFFFF000000FFFFFFFFFF68
:10327000FFFFFFFFFFFFFFFFFFFF000000FFFFFF5B
:10328000000000FFFFFFFFFFFFFFFFFFFFFFFFFF4B
:10329000FFFF000000FFFFFF000000FFFFFFFFFF38
:1032A000FFFFFFFFFFFFFF000000FFFFFFFFFFFF2B
:1032B000FFFFFF000000FFFFFFFFFFFFFFFFFF001A
:1032C0000000000000000000000000000000FFFF00
:1032D000FFFFFFFFFFFFFF000000FFFFFFFFFFFFFB
:1032E000FFFFFF000000FFFFFFFFFFFF000000FFE8
:1032F000FFFFFFFFFFFFFFFFFFFFFFFFFFFF0000DC
:1033000000FFFFFF000000FFFFFFFFFFFFFFFFFFC9
:10331000FFFFFFFFFFFF000000FFFFFFFFFFFFFFBA
:10332000FFFFFFFFFFFFFFFFFFFFFFFFFFFFFFFFAD
:10333000FFFFFFFFFFFFFFFFFFFFFFFFFFFFFFFF9D
:10334000FFFFFFFFFFFFFFFFFFFFFFFFFFFFFFFF8D
:10335000FFFFFFFFFFFFFFFFFFFFFFFFFFFFFFFF7D
:10336000FFFFFFFF2C324000080000000D000000AE
:103370000800000000000000000000000000000045
:10338000000000FFFFFFFFFFFFFFFFFF000000FF47
:10339000FFFFFFFFFFFFFFFFFFFFFF000000FFFF3A
:1033A000FFFFFFFF000000FFFFFFFFFFFFFFFFFF2A
:1033B000FFFFFF000000FFFFFFFFFFFF000000FF17
:1033C000FFFFFFFFFFFFFFFFFFFFFF000000FFFF0A
:1033D000FFFFFFFF000000000000000000000000F1
:1033E000000000FFFFFFFFFFFFFFFFFF000000FFE7
:1033F000FFFFFFFFFFFFFFFFFFFFFF000000FFFFDA
:10340000FFFFFFFF000000FFFFFFFFFFFFFFFFFFC9
:10341000FFFFFFFFFFFF000000FFFFFF000000FFB6
:10342000FFFFFFFFFFFFFFFFFFFFFFFFFFFF0000AA
:1034300000FFFFFF000000FFFFFFFFFFFFFFFFFF98
:10344000FFFFFF000000FFFFFFFFFFFF0000000085
:103450000000000000000000000000FFFFFFFFFF71
:10346000FFFFFFFFFFFFFFFFFFFFFFFFFFFFFFFF6C
:10347000FFFFFFFFFFFFFFFFFFFFFFFFFFFFFFFF5C
:10348000FFFFFFFFFFFFFFFFFFFFFFFFFFFFFFFF4C
:10349000FFFFFFFFFFFFFFFFFFFFFFFFFFFFFFFF3C
:1034A000FFFFFFFFFFFFFFFFFFFFFFFF7433400041
:1034B000080000000D00000008000000FFFFFFFFF3
:1034C000FFFFFFFFFF000000000000000000000001
:1034D00000FFFFFFFFFFFFFFFFFF000000000000F5
:1034E000FFFFFFFFFFFFFFFFFFFFFFFF000000FFE9
:1034F000FFFFFFFFFF000000FFFFFFFFFFFFFFFFD9
:10350000FFFFFFFFFFFFFFFFFFFFFFFFFF000000C8
:10351000FFFFFFFFFFFFFFFFFFFFFFFFFFFFFFFFBB
:10352000FFFFFFFFFFFFFFFF000000FFFFFFFFFFA8
:10353000FFFFFFFFFFFFFFFFFFFFFFFFFFFFFFFF9B
:10354000FFFFFF000000FFFFFFFFFFFFFFFFFFFF88
:10355000FFFFFFFFFFFFFFFFFFFFFFFFFFFF000079
:1035600000FFFFFFFFFFFFFFFFFFFFFFFFFFFFFF6A
:10357000FFFFFFFFFFFFFFFFFFFFFFFF000000FF58
:10358000FFFFFFFFFFFFFFFFFFFFFFFFFFFFFFFF4B
:10359000FFFFFFFFFFFFFF000000000000FFFFFF35
:1035A000FFFFFFFFFFFFFFFFFF000000FFFFFFFF28
:1035B000FFFFFFFFFFFFFFFF000000000000000013
:1035C00000000000FFFFFFFFFFFFFFFFFFFFFFFF07
:1035D000FFFFFFFFFFFFFFFFFFFFFFFFFFFFFFFFFB
:1035E000FFFFFFFFFFFFFFFFFFFFFFFFFFFFFFFFEB
:1035F000FFFFFFFFFFFFFFFFFFFFFFFFFFFFFFFFDB
:10360000FFFFFFFFFFFFFFFFFFFFFFFFFFFFFFFFCA
:10361000FFFFFFFFFFFFFFFFFFFFFF00BC34400085
:10362000090000000D00000008000000000000007C
:103630000000000000000000000000000000FFFF8C
:10364000FFFFFFFFFFFFFFFFFFFF000000FFFFFF87
:10365000FFFFFFFFFFFFFFFFFFFFFFFF0000000076
:103660000000FFFFFFFFFFFF000000FFFFFFFFFF65
:10367000FFFFFFFFFFFFFFFFFFFFFFFFFF00000057
:10368000FFFFFFFFFFFF000000FFFFFFFFFFFFFF47
:10369000FFFFFFFFFFFFFFFFFFFFFFFFFFFF000038
:1036A00000FFFFFF000000FFFFFFFFFFFFFFFFFF26
:1036B000FFFFFFFFFFFFFFFFFFFFFFFF000000FF17
:1036C000FFFF000000FFFFFFFFFFFFFFFFFFFFFF07
:1036D000FFFFFFFFFFFFFFFFFFFF000000FFFFFFF7
:1036E000000000FFFFFFFFFFFFFFFFFFFFFFFFFFE7
:1036F000FFFFFFFFFFFFFFFF000000FFFFFF0000D5
:1037000000FFFFFFFFFFFFFFFFFFFFFFFFFFFFFFC8
:10371000FFFFFF000000FFFFFFFFFFFF000000FFB3
:10372000FFFFFFFFFFFFFFFFFFFFFFFFFFFF0000A7
:1037300000000000FFFFFFFFFFFF0000000000008F
:10374000000000000000000000000000FFFFFFFF7D
:10375000FFFFFFFFFFFFFFFFFFFFFFFFFFFFFFFF79
:10376000FFFFFFFFFFFFFFFFFFFFFFFFFFFFFFFF69
:10377000FFFFFFFFFFFFFFFFFFFFFFFFFFFFFFFF59
:10378000FFFFFFFFFFFFFFFFFFFFFFFFFFFFFFFF49
:10379000FFFFFFFFFFFFFFFFFFFFFFFFFFFFFFFF39
:1037A000FFFFFFFFFFFFFFFFFFFFFFFFFFFFFFFF29
:1037B000FFFF00002C3640000A0000000D00000052
:1037C00008000000000000000000000000000000F1
:1037D000000000000000000000FFFFFF000000FFED
:1037E000FFFFFFFFFFFFFFFFFFFFFFFFFFFFFFFFE9
:1037F000FFFFFFFF000000FFFFFFFFFFFFFFFFFFD6
:10380000FFFFFFFFFFFFFFFFFFFFFFFF000000FFC5
:10381000FFFFFFFFFFFFFFFFFFFFFFFFFFFFFFFFB8
:10382000FFFFFFFF0000000000000000000000009C
:10383000000000000000000000FFFFFF000000FF8C
:10384000FFFFFFFFFFFFFFFFFFFFFFFFFFFFFFFF88
:10385000FFFFFFFF000000FFFFFFFFFFFFFFFFFF75
:10386000FFFFFFFFFFFFFFFFFFFFFFFF000000FF65
:10387000FFFFFFFFFFFFFFFFFFFFFFFFFFFFFFFF58
:10388000FFFFFFFF000000FFFFFFFFFFFFFFFFFF45
:10389000FFFFFFFFFFFFFFFFFFFFFFFF0000000034
:1038A0000000000000000000000000000000000018
:1038B00000FFFFFFFFFFFFFFFFFFFFFFFFFFFFFF17
:1038C000FFFFFFFFFFFFFFFFFFFFFFFFFFFFFFFF08
:1038D000FFFFFFFFFFFFFFFFFFFFFFFFFFFFFFFFF8
:1038E000FFFFFFFFFFFFFFFFFFFFFFFFFFFFFFFFE8
:1038F000FFFFFFFFFFFFFFFFFFFFFFFFC437400099
:10390000080000000D00000008000000000000009A
:103910000000000000000000000000000000FFFFA9
:10392000FF000000FFFFFFFFFFFFFFFFFFFFFFFFA4
:10393000FFFFFFFFFFFF000000FFFFFFFFFFFFFF94
:10394000FFFFFFFFFFFFFFFFFFFFFF000000FFFF84
:10395000FFFFFFFFFFFFFFFFFFFFFFFFFFFFFFFF77
:103960000000000000000000000000000000000057
:103970000000FFFFFF000000FFFFFFFFFFFFFFFF52
:10398000FFFFFFFFFFFFFFFFFFFF000000FFFFFF44
:10399000FFFFFFFFFFFFFFFFFFFFFFFFFFFFFF0036
:1039A0000000FFFFFFFFFFFFFFFFFFFFFFFFFFFF25
:1039B000FFFFFFFF000000FFFFFFFFFFFFFFFFFF14
:1039C000FFFFFFFFFFFFFFFFFF000000FFFFFFFF04
:1039D000FFFFFFFFFFFFFFFFFFFFFFFFFFFFFFFFF7
:1039E000FFFFFFFFFFFFFFFFFFFFFFFFFFFFFFFFE7
:1039F000FFFFFFFFFFFFFFFFFFFFFFFFFFFFFFFFD7
:103A0000FFFFFFFFFFFFFFFFFFFFFFFFFFFFFFFFC6
:103A1000FFFFFFFFFFFFFFFFFFFFFFFFFF000000B3
:103A20000C394000070000000D00000008000000F5
:103A3000FFFFFFFFFFFFFFFFFF000000000000008F
:103A40000000000000FFFFFFFFFFFFFFFFFF00007F
:103A500000000000FFFFFFFFFFFFFFFFFFFFFFFF72
:103A6000000000FFFFFFFFFFFF000000FFFFFFFF60
:103A7000FFFFFFFFFFFFFFFFFFFFFFFFFFFFFFFF56
:103A8000FF000000FFFFFFFFFFFFFFFFFFFFFFFF43
:103A9000FFFFFFFFFFFFFFFFFFFFFFFF000000FF33
:103AA000FFFFFFFFFFFFFFFFFFFFFFFFFFFFFFFF26
:103AB000FFFFFFFFFFFFFF000000FFFFFFFFFFFF13
:103AC000FFFFFF000000000000000000000000FFFA
:103AD000FFFF000000FFFFFFFFFFFFFFFFFFFFFFF3
:103AE000FFFFFFFFFFFFFF000000FFFFFFFFFFFFE3
:103AF000000000FFFFFFFFFFFFFFFFFFFFFFFFFFD3
:103B0000FFFF000000FFFFFFFFFFFF0000000000BD
:103B100000FFFFFFFFFFFFFFFFFFFFFFFF000000B1
:103B2000FFFFFFFFFFFFFFFFFFFFFFFF00000000A1
:103B30000000000000000000FFFFFFFFFFFFFFFF8D
:103B4000FFFFFFFFFFFFFFFFFFFFFFFFFFFFFFFF85
:103B5000FFFFFFFFFFFFFFFFFFFFFFFFFFFFFFFF75
:103B6000FFFFFFFFFFFFFFFFFFFFFFFFFFFFFFFF65
:103B7000FFFFFFFFFFFFFFFFFFFFFFFFFFFFFFFF55
:103B8000FFFFFFFFFFFFFFFFFFFFFFFFFFFFFF0044
:103B9000303A4000090000000D000000080000005D
:103BA000000000FFFFFFFFFFFFFFFFFFFFFFFFFF22
:103BB000FFFFFFFFFF000000FFFFFF000000FFFF0F
:103BC000FFFFFFFFFFFFFFFFFFFFFFFFFFFFFFFF05
:103BD000000000FFFFFF000000FFFFFFFFFFFFFFEF
:103BE000FFFFFFFFFFFFFFFFFFFFFF000000FFFFE2
:103BF000FF000000FFFFFFFFFFFFFFFFFFFFFFFFD2
:103C0000FFFFFFFFFFFF000000FFFFFF00000000BD
:103C100000000000000000000000000000000000A4
:103C200000000000FFFFFF000000FFFFFFFFFFFF9D
:103C3000FFFFFFFFFFFFFFFFFFFFFFFF000000FF91
:103C4000FFFF000000FFFFFFFFFFFFFFFFFFFFFF81
:103C5000FFFFFFFFFFFFFF000000FFFFFF0000006E
:103C6000FFFFFFFFFFFFFFFFFFFFFFFFFFFFFFFF64
:103C7000FFFF000000FFFFFF000000FFFFFFFFFF4E
:103C8000FFFFFFFFFFFFFFFFFFFFFFFFFF00000041
:103C9000FFFFFF000000FFFFFFFFFFFFFFFFFFFF31
:103CA000FFFFFFFFFFFFFFFF000000FFFFFFFFFF21
:103CB000FFFFFFFFFFFFFFFFFFFFFFFFFFFFFFFF14
:103CC000FFFFFFFFFFFFFFFFFFFFFFFFFFFFFFFF04
:103CD000FFFFFFFFFFFFFFFFFFFFFFFFFFFFFFFFF4
:103CE000FFFFFFFFFFFFFFFFFFFFFFFFFFFFFFFFE4
:103CF000FFFFFFFFFFFFFFFFFFFFFFFFFFFFFF00D3
:103D0000A03B4000090000000D000000080000007A
:103D1000000000000000000000FFFFFFFFFFFF00A9
:103D20000000FFFFFFFFFFFFFFFFFF000000FFFF9E
:103D3000FFFFFFFFFFFFFF000000FFFFFFFFFFFF90
:103D4000FFFFFF000000FFFFFFFFFFFFFFFFFF007F
:103D50000000FFFFFFFFFFFFFFFFFF000000FFFF6E
:103D6000FFFFFFFFFFFFFF000000FFFFFFFFFFFF60
:103D7000FFFFFF000000FFFFFFFFFFFF000000004C
:103D80000000000000FFFFFFFFFFFFFFFFFFFFFF3E
:103D9000FFFFFFFFFFFFFFFFFFFFFFFFFFFFFFFF33
:103DA000FFFFFFFFFFFFFFFFFFFFFFFF103D400092
:103DB000040000000D00000008000000FFFFFF00ED
:103DC0000000000000000000000000FFFFFFFFFFF8
:103DD000FFFFFFFFFFFFFFFFFFFF000000FFFFFFF0
:103DE000FFFFFFFFFFFFFFFFFFFFFFFF000000FFE0
:103DF000FFFFFFFFFFFFFFFFFFFFFFFFFFFF0000D1
:103E000000FFFFFFFFFFFFFFFFFFFFFFFFFFFFFFC1
:103E1000000000FFFFFFFFFFFFFFFFFFFFFFFFFFAF
:103E2000FFFF000000FFFFFFFFFFFFFFFFFFFFFF9F
:103E3000FFFFFFFF000000FFFFFFFFFFFFFFFFFF8F
:103E4000FFFFFFFFFFFF000000FFFFFFFFFFFFFF7F
:103E5000FFFFFFFFFFFFFFFF000000FFFFFF00006D
:103E600000000000000000000000FFFFFFFFFFFF58
:103E7000FFFFFFFFFFFFFFFFFFFFFFFFFFFFFFFF52
:103E8000FFFFFFFFFFFFFFFFFFFFFFFFFFFFFFFF42
:103E9000FFFFFFFFFFFFFFFFFFFFFFFFFFFFFFFF32
:103EA000FFFFFFFFFFFF0000BC3D400006000000D9
:103EB0000D00000008000000000000FFFFFFFFFFF2
:103EC000FFFFFFFFFFFFFFFFFFFF000000FFFFFFFF
:103ED000000000FFFFFFFFFFFFFFFFFFFFFFFF00EE
:103EE0000000FFFFFFFFFFFF000000FFFFFFFFFFDD
:103EF000FFFFFFFF000000FFFFFFFFFFFFFFFFFFCF
:103F0000000000FFFFFFFFFFFF000000FFFFFFFFBB
:103F1000FFFFFFFFFFFFFFFF000000FFFFFF0000AC
:103F200000FFFFFFFFFFFFFFFFFFFFFFFFFFFFFFA0
:103F3000000000000000000000FFFFFFFFFFFFFF88
:103F4000FFFFFFFFFFFFFFFF000000FFFFFFFFFF7E
:103F5000FF000000FFFFFFFFFFFFFFFFFFFFFFFF6E
:103F6000000000FFFFFFFFFFFFFFFFFF000000FF5B
:103F7000FFFFFFFFFFFFFFFF000000FFFFFFFFFF4E
:103F8000FFFFFFFFFFFFFF000000FFFFFFFFFFFF3E
:103F9000000000FFFFFFFFFFFFFFFFFFFFFFFFFF2E
:103FA000FFFF000000FFFFFFFFFFFFFFFFFFFFFF1E
:103FB000FFFFFFFFFFFFFFFFFFFFFFFFFFFFFFFF11
:103FC000FFFFFFFFFFFFFFFFFFFFFFFFFFFFFFFF01
:103FD000FFFFFFFFFFFFFFFFFFFFFFFFFFFFFFFFF1
:103FE000FFFFFFFFFFFFFFFFFFFFFFFFFFFFFFFFE1
:103FF000B83E4000080000000D000000080000006E
:10400000000000FFFFFFFFFFFFFFFFFFFFFFFFFFBD
:10401000FFFFFFFFFF000000FFFFFFFFFFFFFFFFAD
:10402000FFFFFFFFFFFFFFFFFFFF000000FFFFFF9D
:10403000FFFFFFFFFFFFFFFFFFFFFFFFFFFFFF008F
:104040000000FFFFFFFFFFFFFFFFFFFFFFFFFFFF7E
:10405000FFFFFFFF000000FFFFFFFFFFFFFFFFFF6D
:10406000FFFFFFFFFFFFFFFFFF000000FFFFFFFF5D
:10407000FFFFFFFFFFFFFFFFFFFFFFFFFFFF00004E
:1040800000FFFFFFFFFFFFFFFFFFFFFFFFFFFFFF3F
:10409000FFFFFF000000FFFFFFFFFFFFFFFFFFFF2D
:1040A000FFFFFFFFFFFFFFFF000000FFFFFFFFFF1D
:1040B000FFFFFFFFFFFFFFFFFFFFFFFFFF0000000D
:1040C000000000000000000000000000000000FFF1
:1040D000FFFFFFFFFFFFFFFFFFFFFFFFFFFFFFFFF0
:1040E000FFFFFFFFFFFFFFFFFFFFFFFFFFFFFFFFE0
:1040F000FFFFFFFFFFFFFFFFFFFFFFFFFFFFFFFFD0
:10410000FFFFFFFFFFFFFFFFFFFFFFFFFFFFFFFFBF
:10411000FF00000000404000070000000D0000000C
:1041200008000000000000000000FFFFFFFFFFFF8D
:10413000FFFFFFFFFFFFFFFFFF000000000000FF89
:10414000FFFF000000000000FFFFFFFFFFFFFFFF79
:10415000FFFFFFFFFFFFFF000000000000FFFFFF69
:10416000000000FFFFFF000000FFFFFFFFFFFFFF59
:10417000FFFF000000FFFFFF000000FFFFFF000047
:1041800000FFFFFF000000FFFFFFFFFFFFFFFFFF3B
:10419000000000FFFFFF000000FFFFFF000000FF26
:1041A000FFFFFFFFFF000000FFFFFF000000FFFF19
:1041B000FFFFFFFF000000FFFFFF000000FFFFFF09
:1041C000FFFFFF000000FFFFFF000000FFFFFFFFF9
:1041D000FFFF000000FFFFFF000000FFFFFFFFFFE9
:1041E000FFFFFFFF000000FFFFFFFFFFFFFFFFFFDC
:1041F000000000FFFFFF000000FFFFFFFFFFFFFFC9
:10420000FFFF000000FFFFFFFFFFFFFFFFFF0000B9
:1042100000FFFFFF000000FFFFFFFFFFFFFFFFFFAA
:10422000FFFFFFFFFFFFFFFFFFFFFFFF000000FF9B
:10423000FFFF000000FFFFFFFFFFFFFFFFFFFFFF8B
:10424000FFFFFFFFFFFFFFFFFFFF000000FFFFFF7B
:10425000FFFFFFFFFFFFFFFFFFFFFFFFFFFFFFFF6E
:10426000FFFFFFFFFFFFFFFFFFFFFFFFFFFFFFFF5E
:10427000FFFFFFFFFFFFFFFFFFFFFFFFFFFFFFFF4E
:10428000FFFFFFFFFFFFFFFFFFFFFFFFFFFFFFFF3E
:10429000FFFFFFFFFFFFFFFFFFFFFFFFFFFFFFFF2E
:1042A000FFFFFFFFFFFFFFFFFFFF00002441400073
:1042B0000A0000000D0000000800000000000000DF
:1042C0000000FFFFFFFFFFFFFFFFFFFFFFFFFFFFFC
:1042D000FF000000FFFFFF000000000000FFFFFFE5
:1042E000FFFFFFFFFFFFFFFFFFFFFFFF000000FFDB
:1042F000FFFF000000FFFFFF000000FFFFFFFFFFC8
:10430000FFFFFFFFFFFFFF000000FFFFFF000000B7
:10431000FFFFFF000000FFFFFFFFFFFFFFFFFFFFAA
:10432000FFFF000000FFFFFF000000FFFFFFFFFF97
:10433000FF000000FFFFFFFFFFFFFFFFFF00000087
:10434000FFFFFF000000FFFFFFFFFFFFFFFFFF0079
:104350000000FFFFFFFFFFFF000000FFFFFF000066
:1043600000FFFFFFFFFFFFFFFFFF000000FFFFFF59
:10437000FFFFFF000000FFFFFF000000FFFFFFFF47
:10438000FFFFFFFFFFFFFFFF000000FFFFFF000038
:1043900000FFFFFF000000FFFFFFFFFFFFFFFFFF29
:1043A000FFFFFFFFFFFF000000000000FFFFFF0016
:1043B0000000FFFFFFFFFFFFFFFFFFFFFFFFFFFF0B
:1043C000FF000000000000FFFFFFFFFFFFFFFFFFF7
:1043D000FFFFFFFFFFFFFFFFFFFFFFFFFFFFFFFFED
:1043E000FFFFFFFFFFFFFFFFFFFFFFFFFFFFFFFFDD
:1043F000FFFFFFFFFFFFFFFFFFFFFFFFFFFFFFFFCD
:10440000FFFFFFFFFFFFFFFFFFFFFFFFFFFFFFFFBC
:10441000FFFFFFFFFFFFFFFFFFFFFF00BC42400069
:10442000090000000D00000008000000FFFFFFFF72
:10443000FFFFFFFFFF000000000000000000FFFF83
:10444000FFFFFFFFFFFFFFFFFFFFFFFFFF00000079
:10445000000000FFFFFFFFFFFFFFFFFF0000000065
:104460000000FFFFFFFFFFFFFFFFFF000000FFFF57
:10447000FFFFFFFFFFFFFFFFFFFFFFFFFF00000049
:10448000FFFFFFFFFFFF000000FFFFFFFFFFFFFF39
:10449000FFFFFFFFFFFFFFFFFFFFFFFFFFFF00002A
:1044A00000FFFFFF000000FFFFFFFFFFFFFFFFFF18
:1044B000FFFFFFFFFFFFFFFFFFFFFFFF000000FF09
:1044C000FFFF000000FFFFFFFFFFFFFFFFFFFFFFF9
:1044D000FFFFFFFFFFFFFFFFFFFF000000FFFFFFE9
:1044E000000000FFFFFFFFFFFFFFFFFFFFFFFFFFD9
:1044F000FFFFFFFFFFFFFFFF000000FFFFFFFFFFC9
:10450000FF000000FFFFFFFFFFFFFFFFFFFFFFFFB8
:10451000FFFFFF000000FFFFFFFFFFFFFFFFFF00A7
:104520000000000000FFFFFFFFFFFFFFFFFF000094
:1045300000000000FFFFFFFFFFFFFFFFFFFFFFFF87
:10454000FFFFFF000000000000000000FFFFFFFF72
:10455000FFFFFFFFFFFFFFFFFFFFFFFFFFFFFFFF6B
:10456000FFFFFFFFFFFFFFFFFFFFFFFFFFFFFFFF5B
:10457000FFFFFFFFFFFFFFFFFFFFFFFFFFFFFFFF4B
:10458000FFFFFFFFFFFFFFFFFFFFFFFFFFFFFFFF3B
:10459000FFFFFFFFFFFFFFFFFFFFFFFFFFFFFFFF2B
:1045A000FFFFFFFFFFFFFFFFFFFFFFFFFFFFFFFF1B
:1045B000FFFF00002C4440000A0000000D00000036
:1045C00008000000000000000000000000000000E3
:1045D000000000FFFFFFFFFFFFFFFFFF000000FFE5
:1045E000FFFFFFFFFFFFFFFFFFFFFF000000FFFFD8
:1045F000FFFFFFFF000000FFFFFFFFFFFFFFFFFFC8
:10460000FFFFFFFFFFFF000000FFFFFF000000FFB4
:10461000FFFFFFFFFFFFFFFFFFFFFFFFFFFF0000A8
:1046200000FFFFFF000000FFFFFFFFFFFFFFFFFF96
:10463000FFFFFF000000FFFFFFFFFFFF0000000083
:104640000000000000000000000000FFFFFFFFFF6F
:10465000FFFFFFFF000000FFFFFFFFFFFFFFFFFF67
:10466000FFFFFFFFFFFFFFFFFFFFFFFF000000FF57
:10467000FFFFFFFFFFFFFFFFFFFFFFFFFFFFFFFF4A
:10468000FFFFFFFF000000FFFFFFFFFFFFFFFFFF37
:10469000FFFFFFFFFFFFFFFFFFFFFFFF000000FF27
:1046A000FFFFFFFFFFFFFFFFFFFFFFFFFFFFFFFF1A
:1046B000FFFFFFFFFFFFFFFFFFFFFFFFFFFFFFFF0A
:1046C000FFFFFFFFFFFFFFFFFFFFFFFFFFFFFFFFFA
:1046D000FFFFFFFFFFFFFFFFFFFFFFFFFFFFFFFFEA
:1046E000FFFFFFFFFFFFFFFFFFFFFFFFFFFFFFFFDA
:1046F000FFFFFFFFFFFFFFFFFFFFFFFFC44540007D
:10470000080000000D00000008000000FFFFFFFF90
:10471000FFFFFFFFFF000000000000000000FFFFA0
:10472000FFFFFFFFFFFFFFFFFFFFFFFFFF00000096
:10473000000000FFFFFFFFFFFFFFFFFF0000000082
:104740000000FFFFFFFFFFFFFFFFFF000000FFFF74
:10475000FFFFFFFFFFFFFFFFFFFFFFFFFF00000066
:10476000FFFFFFFFFFFF000000FFFFFFFFFFFFFF56
:10477000FFFFFFFFFFFFFFFFFFFFFFFFFFFF000047
:1047800000FFFFFF000000FFFFFFFFFFFFFFFFFF35
:10479000FFFFFFFFFFFFFFFFFFFFFFFF000000FF26
:1047A000FFFF000000FFFFFFFFFFFFFFFFFFFFFF16
:1047B000FFFFFFFFFFFFFFFFFFFF000000FFFFFF06
:1047C000000000FFFFFFFFFFFFFFFFFFFFFFFFFFF6
:1047D000FFFFFFFFFFFFFFFF000000FFFFFFFFFFE6
:1047E000FF000000FFFFFFFFFFFFFFFFFFFFFFFFD6
:1047F000FFFFFF000000FFFFFFFFFFFFFFFFFF00C5
:104800000000000000FFFFFFFFFFFFFFFFFF0000B1
:1048100000000000FFFFFFFFFFFFFFFFFFFFFFFFA4
:10482000FFFFFF000000000000000000FFFFFFFF8F
:10483000FFFFFFFFFFFFFFFFFFFFFFFFFFFFFFFF88
:10484000FFFFFFFFFFFFFF000000FFFFFFFFFFFF75
:10485000FFFFFFFFFFFFFFFFFFFFFFFFFFFFFFFF68
:10486000FFFFFFFFFF000000FFFFFFFFFFFFFFFF55
:10487000FFFFFFFFFFFFFFFFFFFFFFFFFFFFFFFF48
:10488000FFFFFFFFFFFF000000000000000000FF2F
:10489000FFFF00000C4740000A0000000D00000070
:1048A0000800000000000000000000000000000000
:1048B000000000FFFFFFFFFFFFFFFFFFFFFFFF0004
:1048C0000000FFFFFFFFFFFFFFFFFFFFFFFF0000F4
:1048D00000FFFFFFFFFFFFFFFFFF000000FFFFFFE4
:1048E000FFFFFFFFFFFFFFFFFF000000FFFFFFFFD5
:1048F000FFFFFFFFFF000000FFFFFFFFFFFFFFFFC5
:10490000FFFFFFFF000000FFFFFFFFFFFFFFFFFFB4
:10491000000000FFFFFFFFFFFFFFFFFFFFFFFF00A3
:104920000000FFFFFFFFFFFFFFFFFF000000000090
:1049300000000000000000000000FFFFFFFFFFFF7D
:10494000FFFFFFFFFFFF000000FFFFFFFFFFFFFF74
:10495000FFFF000000FFFFFFFFFFFFFFFFFFFFFF64
:10496000FF000000FFFFFFFFFFFFFFFFFFFFFFFF54
:10497000000000FFFFFFFFFFFFFFFFFF000000FF41
:10498000FFFFFFFFFFFFFFFFFFFFFFFFFFFF000035
:1049900000FFFFFFFFFFFF000000FFFFFFFFFFFF23
:1049A000FFFFFFFFFFFFFFFFFFFFFFFF000000FF14
:1049B000FFFFFFFFFFFFFFFFFFFFFFFFFFFFFFFF07
:1049C000FFFFFFFFFFFFFFFFFFFFFFFFFFFFFFFFF7
:1049D000FFFFFFFFFFFFFFFFFFFFFFFFFFFFFFFFE7
:1049E000FFFFFFFFFFFFFFFFFFFFFFFFFFFFFFFFD7
:1049F000FFFFFFFFFFFFFFFFFFFFFFFFFFFFFFFFC7
:104A0000FFFFFF00A4484000090000000D00000067
:104A100008000000FFFFFF00000000000000000091
:104A2000000000000000FFFFFFFFFFFF000000FF8D
:104A3000FFFFFFFFFFFFFFFFFFFFFFFFFFFF000084
:104A400000FFFFFF000000FFFFFFFFFFFFFFFFFF72
:104A5000FFFFFFFFFFFFFFFFFFFFFFFF000000FF63
:104A6000FFFFFFFFFFFFFFFFFFFFFFFFFFFFFFFF56
:104A7000FFFFFFFFFFFFFF0000000000000000003D
:104A8000FFFFFFFFFFFFFFFFFFFFFFFFFFFFFFFF36
:104A9000FFFFFFFFFFFFFFFF000000000000FFFF20
:104AA000FFFFFFFFFFFFFFFFFFFFFFFFFFFFFFFF16
:104AB000FFFFFFFFFFFF000000FFFFFFFFFFFFFF03
:104AC000FFFFFFFFFFFFFFFFFFFFFFFFFFFF0000F4
:104AD00000FFFFFF000000FFFFFFFFFFFFFFFFFFE2
:104AE000FFFFFFFFFFFF000000FFFFFFFFFFFF00D2
:104AF0000000000000000000000000000000FFFFB8
:104B0000FFFFFFFFFFFFFFFFFFFFFFFFFFFFFFFFB5
:104B1000FFFFFFFFFFFFFFFFFFFFFFFFFFFFFFFFA5
:104B2000FFFFFFFFFFFFFFFFFFFFFFFFFFFFFFFF95
:104B3000FFFFFFFFFFFFFFFFFFFFFFFFFFFFFFFF85
:104B4000FFFFFFFFFFFFFFFFFFFFFFFF144A4000D3
:104B5000080000000D000000080000000000000038
:104B60000000000000000000000000000000000045
:104B700000000000FFFFFFFFFFFFFFFFFF0000003E
:104B8000FFFFFFFFFFFFFFFFFFFFFFFFFFFFFFFF35
:104B9000FFFFFFFFFF000000FFFFFFFFFFFFFFFF22
:104BA000FFFFFFFFFFFFFFFFFFFFFFFFFF00000012
:104BB000FFFFFFFFFFFFFFFFFFFFFFFFFFFFFFFF05
:104BC000FFFFFFFFFF000000FFFFFFFFFFFFFFFFF2
:104BD000FFFFFFFFFFFFFFFFFFFFFFFFFF000000E2
:104BE000FFFFFFFFFFFFFFFFFFFFFFFFFFFFFFFFD5
:104BF000FFFFFFFFFF000000FFFFFFFFFFFFFFFFC2
:104C0000FFFFFFFFFFFFFFFFFFFFFFFFFF000000B1
:104C1000FFFFFFFFFFFFFFFFFFFFFFFFFFFFFFFFA4
:104C2000FFFFFFFFFF000000FFFFFFFFFFFFFFFF91
:104C3000FFFFFFFFFFFFFFFFFFFFFFFFFF00000081
:104C4000FFFFFFFFFFFFFFFFFFFFFFFFFFFFFFFF74
:104C5000FFFFFFFFFFFFFFFFFFFFFFFFFFFFFFFF64
:104C6000FFFFFFFFFFFFFFFFFFFFFFFFFFFFFFFF54
:104C7000FFFFFFFFFFFFFFFFFFFFFFFFFFFFFFFF44
:104C8000FFFFFFFFFFFFFFFFFFFFFFFFFFFFFFFF34
:104C9000FFFFFFFF5C4B4000080000000D0000001C
:104CA00008000000000000FFFFFFFFFFFFFFFFFF05
:104CB000FFFFFFFFFFFFFFFFFF000000FFFFFF0000
:104CC0000000FFFFFFFFFFFFFFFFFFFFFFFFFFFFF2
:104CD000FFFFFFFF000000FFFFFF000000FFFFFFDE
:104CE000FFFFFFFFFFFFFFFFFFFFFFFFFFFFFF00D3
:104CF0000000FFFFFF000000FFFFFFFFFFFFFFFFBF
:104D0000FFFFFFFFFFFFFFFFFFFF000000FFFFFFB0
:104D1000000000FFFFFFFFFFFFFFFFFFFFFFFFFFA0
:104D2000FFFFFFFFFF000000FFFFFF000000FFFF8D
:104D3000FFFFFFFFFFFFFFFFFFFFFFFFFFFFFFFF83
:104D4000000000FFFFFF000000FFFFFFFFFFFFFF6D
:104D5000FFFFFFFFFFFFFFFFFFFFFF000000FFFF60
:104D6000FF000000FFFFFFFFFFFFFFFFFFFFFFFF50
:104D7000FFFFFFFFFFFF000000FFFFFFFFFFFF003F
:104D80000000FFFFFFFFFFFFFFFFFFFFFFFF00002F
:104D900000FFFFFFFFFFFFFFFFFFFFFFFF0000001F
:104DA000000000000000000000FFFFFFFFFFFFFF0A
:104DB000FFFFFFFFFFFFFFFFFFFFFFFFFFFFFFFF03
:104DC000FFFFFFFFFFFFFFFFFFFFFFFFFFFFFFFFF3
:104DD000FFFFFFFFFFFFFFFFFFFFFFFFFFFFFFFFE3
:104DE000FFFFFFFFFFFFFFFFFFFFFFFFFFFFFFFFD3
:104DF000FFFFFFFFFFFFFFFFFFFFFFFFFFFFFFFFC3
:104E0000FFFFFF00A44C4000090000000D0000005F
:104E100008000000000000FFFFFFFFFFFFFFFFFF93
:104E2000FFFFFFFFFFFF000000FFFFFF000000FF8C
:104E3000FFFFFFFFFFFFFFFFFFFFFFFFFFFF000080
:104E400000FFFFFFFFFFFF000000FFFFFFFFFFFF6E
:104E5000FFFFFF000000FFFFFFFFFFFFFFFFFF005E
:104E60000000FFFFFFFFFFFFFFFFFF000000FFFF4D
:104E7000FFFFFFFFFFFFFF000000FFFFFFFFFFFF3F
:104E8000FFFFFF000000FFFFFFFFFFFFFFFFFFFF2F
:104E9000FFFF000000FFFFFF000000FFFFFFFFFF1C
:104EA000FFFFFFFFFFFFFFFFFFFF000000FFFFFF0F
:104EB000000000FFFFFFFFFFFFFFFFFFFFFFFFFFFF
:104EC000FFFF000000FFFFFF000000FFFFFFFFFFEC
:104ED000FFFFFFFFFFFFFFFFFFFFFFFFFF000000DF
:104EE000FFFFFFFFFFFFFFFFFFFFFFFFFFFFFFFFD2
:104EF000FFFFFFFFFF000000FFFFFFFFFFFFFFFFBF
:104F0000FFFFFFFFFFFFFFFFFFFFFFFFFFFFFFFFB1
:104F1000FFFFFFFFFFFFFFFFFFFFFFFFFFFFFFFFA1
:104F2000FFFFFFFFFFFFFFFFFFFFFFFFFFFFFFFF91
:104F3000FFFFFFFFFFFFFFFFFFFFFFFFFFFFFFFF81
:104F4000FFFFFFFFFFFFFFFFFFFFFFFF144E4000CB
:104F5000080000000D00000008000000000000FF35
:104F6000FFFFFFFFFFFFFFFFFFFFFFFFFFFF00004F
:104F700000FFFFFFFFFFFFFFFFFFFFFFFFFFFFFF40
:104F8000000000FFFFFF000000FFFFFFFFFFFFFF2B
:104F9000FFFFFFFFFF000000FFFFFF000000FFFF1B
:104FA000FFFFFFFFFFFFFFFFFFFF000000FFFFFF0E
:104FB000FFFFFF000000FFFFFFFFFFFFFFFFFF00FD
:104FC0000000FFFFFF000000FFFFFFFFFFFFFFFFEC
:104FD000FF000000FFFFFFFFFFFFFFFFFF000000DB
:104FE000FFFFFFFFFFFFFFFFFF000000FFFFFF00CD
:104FF0000000FFFFFFFFFFFFFFFFFF000000FFFFBC
:10500000FFFFFFFFFFFFFF000000FFFFFFFFFFFFAD
:10501000FFFFFF000000FFFFFF000000FFFFFFFF9A
:10502000FFFFFFFFFF000000FFFFFFFFFFFFFFFF8D
:10503000FF000000FFFFFFFFFFFF000000FFFFFF7A
:10504000FFFFFFFFFFFF000000FFFFFFFFFFFF006C
:105050000000FFFFFFFFFFFFFFFFFFFFFFFF00005C
:1050600000FFFFFF000000FFFFFFFFFFFFFFFFFF4C
:10507000000000FFFFFF000000FFFFFFFFFFFFFF3A
:10508000FFFFFFFFFFFFFFFF000000FFFFFF00002B
:1050900000FFFFFFFFFFFFFFFFFF000000FFFFFF1C
:1050A000000000FFFFFFFFFFFFFFFFFFFFFFFFFF0D
:1050B000FFFF000000000000FFFFFFFFFFFFFFFFFA
:1050C000FFFFFFFFFFFFFF000000000000FFFFFFEA
:1050D000FFFFFFFFFFFFFFFFFFFFFFFFFFFFFF00DF
:1050E0000000FFFFFFFFFFFFFFFFFFFFFFFFFFFFCE
:1050F000FF000000FFFFFFFFFFFFFFFFFFFFFFFFBD
:10510000FFFFFFFFFFFFFFFFFFFFFFFFFFFFFFFFAF
:10511000FFFFFFFFFFFFFFFFFFFFFFFFFFFFFFFF9F
:10512000FFFFFFFFFFFFFFFFFFFFFFFFFFFFFFFF8F
:10513000FFFFFFFFFFFFFFFFFFFFFFFFFFFFFFFF7F
:10514000FFFFFFFFFFFFFFFFFFFFFFFFFFFFFFFF6F
:10515000FFFFFFFFFFFFFFFFFFFFFFFFFFFFFFFF5F
:10516000FFFFFFFFFFFFFFFFFFFFFFFFFFFFFFFF4F
:10517000FFFFFFFFFFFFFFFFFFFFFFFFFFFF00003D
:105180005C4F40000E0000000D0000000800000011
:10519000000000FFFFFFFFFFFFFFFFFFFFFFFFFF1C
:1051A000FFFF000000FFFFFFFFFFFF000000FFFF09
:1051B000FFFFFFFFFFFFFF000000FFFFFFFFFFFFFC
:1051C000FFFFFF000000FFFFFFFFFFFFFFFFFF00EB
:1051D0000000FFFFFFFFFFFFFFFFFFFFFFFF0000DB
:1051E00000FFFFFF000000FFFFFFFFFFFFFFFFFFCB
:1051F000FFFFFFFFFFFFFFFFFF000000FFFFFFFFBC
:10520000FFFFFFFFFFFFFFFFFFFFFFFFFFFFFFFFAE
:10521000FF000000FFFFFFFFFFFFFFFFFFFFFFFF9B
:10522000FFFFFFFFFFFF000000FFFFFF000000FF88
:10523000FFFFFFFFFFFFFFFFFFFFFF000000FFFF7B
:10524000FFFFFFFFFFFFFF000000FFFFFFFFFFFF6B
:10525000FFFFFF000000FFFFFFFFFFFFFFFFFF005A
:105260000000FFFFFFFFFFFF000000FFFFFFFFFF49
:10527000FFFFFFFFFFFFFFFFFFFF000000FFFFFF3B
:10528000FFFFFFFFFFFFFFFFFFFFFFFFFFFFFFFF2E
:10529000FFFFFFFFFFFFFFFFFFFFFFFFFFFFFFFF1E
:1052A000FFFFFFFFFFFFFFFFFFFFFFFFFFFFFFFF0E
:1052B000FFFFFFFFFFFFFFFFFFFFFFFFFFFFFFFFFE
:1052C000FFFFFFFFFFFFFFFF9051400008000000BD
:1052D0000D00000008000000000000FFFFFFFFFFBE
:1052E000FFFFFFFFFFFFFFFFFFFF000000FFFFFFCB
:1052F000FFFFFF000000FFFFFFFFFFFFFFFFFF00BA
:105300000000FFFFFFFFFFFFFFFFFF000000FFFFA8
:10531000FFFFFFFFFFFFFF000000FFFFFFFFFFFF9A
:10532000FFFFFFFFFFFF000000FFFFFF000000FF87
:10533000FFFFFFFFFFFFFFFFFFFFFFFFFFFF00007B
:1053400000FFFFFF000000FFFFFFFFFFFFFFFFFF69
:10535000FFFFFFFFFFFFFFFFFF000000FFFFFFFF5A
:10536000FFFFFFFFFFFFFFFFFFFFFFFFFFFFFFFF4D
:10537000FF000000FFFFFFFFFFFFFFFFFFFFFFFF3A
:10538000FFFFFFFFFFFFFFFFFF000000FFFFFFFF2A
:10539000FFFFFFFFFFFFFFFFFFFFFFFFFFFFFFFF1D
:1053A000FF000000FFFFFFFFFFFFFFFFFFFFFFFF0A
:1053B000FFFFFFFFFFFFFFFFFF000000FFFFFFFFFA
:1053C000FFFFFFFFFFFFFFFFFFFFFFFFFFFFFFFFED
:1053D000FFFFFFFFFFFFFFFFFFFFFFFFFFFFFFFFDD
:1053E000FFFFFFFFFFFFFFFFFFFFFFFFFFFFFFFFCD
:1053F000FFFFFFFFFFFFFFFFFFFFFFFFFFFFFFFFBD
:10540000FFFFFFFFFFFFFFFFFFFFFFFFFFFFFFFFAC
:10541000D8524000080000000D0000000800000005
:10542000000000000000000000000000000000007C
:105430000000000000FFFFFFFFFFFFFFFFFFFFFF77
:10544000FFFFFFFFFFFFFFFFFFFF000000FFFFFF69
:10545000FFFFFFFFFFFFFFFFFFFFFFFFFFFFFF005B
:105460000000FFFFFFFFFFFFFFFFFFFFFFFFFFFF4A
:10547000FFFFFFFF000000FFFFFFFFFFFFFFFFFF39
:10548000FFFFFFFFFFFFFFFFFF000000FFFFFFFF29
:10549000FFFFFFFFFFFFFFFFFFFFFFFFFFFFFFFF1C
:1054A000FF000000FFFFFFFFFFFFFFFFFFFFFFFF09
:1054B000FFFFFFFFFFFF000000FFFFFFFFFFFFFFF9
:1054C000FFFFFFFFFFFFFFFFFFFFFF000000FFFFE9
:1054D000FFFFFFFFFFFFFFFFFFFFFFFFFFFFFFFFDC
:1054E000000000FFFFFFFFFFFFFFFFFFFFFFFFFFC9
:1054F000FFFFFFFFFFFFFFFF0000000000000000B4
:1055000000000000000000000000000000FFFFFF9E
:10551000FFFFFFFFFFFFFFFFFFFFFFFFFFFFFFFF9B
:10552000FFFFFFFFFFFFFFFFFFFFFFFFFFFFFFFF8B
:10553000FFFFFFFFFFFFFFFFFFFFFFFFFFFFFFFF7B
:10554000FFFFFFFFFFFFFFFFFFFFFFFFFFFFFFFF6B
:10555000FFFFFFFFFFFFFFFF205440000800000097
:105560000D0000000800000041000000643340000E
:1055700042000000AC344000430000001C364000F4
:1055800044000000B437400045000000FC384000F3
:1055900046000000203A400047000000903B4000D9
:1055A00048000000003D400049000000AC3D4000C4
:1055B0004A000000A83E40004B000000F03F4000C1
:1055C0004C000000144140004D000000AC4240007F
:1055D0004E0000001C4440004F000000B445400055
:1055E00050000000FC46400051000000944840007C
:1055F00052000000044A4000530000004C4B4000A1
:1056000054000000944C400055000000044E40003F
:10561000560000004C4F40005700000080514000F1
:1056200058000000C85240005900000010544000CB
:105630005A000000585540001A000000685540000C
:10564000415A0000FFFFFFFFFFFFFFFFFFFFFFFFCB
:10565000FFFFFFFFFFFFFFFFFFFFFFFFFFFFFFFF5A
:10566000FFFFFFFFFFFFFFFFFFFFFFFFFFFFFFFF4A
:10567000FFFFFFFFFFFFFFFFFFFFFFFFFFFFFFFF3A
:10568000FFFFFFFFFFFFFFFFFFFFFFFFFFFFFFFF2A
:1059B000FFFFFFFFFFFFFFFFFFFFFFFF4456400019
:1059C000080000002500000008000000FFFFFFFFA6
:1059D000FFFFFFFFFFFFFFFFFFFFFFFFFFFFFFFFD7
:1059E000FFFFFFFFFFFFFFFFFFFFFFFFFFFFFFFFC7
:1059F000FFFFFFFFFFFFFFFFFFFFFFFFFFFFFFFFB7
:105A0000FFFFFFFFFFFFFFFFFFFFFFFFFFFFFFFFA6
:105A1000FFFFFFFFFFFFFFFFFFFFFFFFFFFFFFFF96
:105A2000FFFFFFFFFFFFFFFFFFFFFFFFFFFFFFFF86
:105A3000FFFFFFFFFFFFFFFFFFFFFFFFFFFFFFFF76
:105A4000FFFFFFFFFFFFFF0000000000000000005D
:105A5000FFFFFFFFFFFFFFFFFFFFFFFFFFFFFFFF56
:105A6000FFFFFFFFFFFFFFFFFFFFFF000000000041
:105A700000000000FFFFFFFFFFFFFFFFFFFFFFFF32
:105A8000FFFFFFFFFFFFFFFFFFFFFFFFFFFFFF0025
:105A90000000000000000000FFFFFFFFFFFFFFFF0E
:105AA000FFFFFFFFFFFFFFFFFFFFFFFFFFFFFFFF06
:105AB000FFFFFF000000000000000000FFFFFFFFED
:105AC000FFFFFFFFFFFFFFFFFFFFFFFFFFFFFFFFE6
:105AD000FFFFFFFFFFFFFF000000000000000000CD
:105AE000FFFFFFFFFFFFFFFFFFFFFFFFFFFFFFFFC6
:105AF000FFFFFFFFFFFFFFFFFFFFFF0000000000B1
:105B000000000000FFFFFFFFFFFFFFFFFFFFFFFFA1
:105B1000FFFFFFFFFFFFFFFFFFFFFFFFFFFFFF0094
:105B20000000000000000000FFFFFFFFFFFFFFFF7D
:105B3000FFFFFFFFFFFFFFFFFFFFFFFFFFFFFFFF75
:105B4000FFFFFF000000000000000000FFFFFFFF5C
:105B5000FFFFFFFFFFFFFFFFFFFFFFFFFFFFFFFF55
:105B6000FFFFFFFFFFFFFF0000000000000000003C
:105B7000FFFFFFFFFFFFFFFFFFFFFFFFFFFFFFFF35
:105B8000FFFFFFFFFFFFFFFFFFFFFF000000000020
:105B900000000000FFFFFFFFFFFFFFFFFFFFFFFF11
:105BA000FFFFFFFFFFFFFFFFFFFFFFFFFFFFFF0004
:105BB0000000000000000000FFFFFFFFFFFFFFFFED
:105BC000FFFFFFFFFFFFFFFFFFFFFFFFFFFFFFFFE5
:105BD000FFFFFF000000000000000000FFFFFFFFCC
:105BE000FFFFFFFFFFFFFFFFFFFFFFFFFFFFFFFFC5
:105BF000FFFFFFFFFFFFFF000000000000000000AC
:105C0000FFFFFFFFFFFFFFFFFFFFFFFFFFFFFFFFA4
:105C1000FFFFFFFFFFFFFFFFFFFFFF00000000008F
:105C200000000000FFFFFFFFFFFFFFFFFFFFFFFF80
:105C3000FFFFFFFFFFFFFFFFFFFFFFFFFFFFFF0073
:105C40000000000000000000FFFFFFFFFFFFFFFF5C
:105C5000FFFFFFFFFFFFFFFFFFFFFFFFFFFFFFFF54
:105C6000FFFFFF000000000000000000FFFFFFFF3B
:105C7000FFFFFFFFFFFFFFFFFFFFFFFFFFFFFFFF34
:105C8000FFFFFFFFFFFFFF0000000000000000001B
:105C9000FFFFFFFFFFFFFFFFFFFFFFFFFFFFFFFF14
:105CA000FFFFFFFFFFFFFFFFFFFFFF0000000000FF
:105CB00000000000FFFFFFFFFFFFFFFFFFFFFFFFF0
:105CC000FFFFFFFFFFFFFFFFFFFFFFFFFFFFFFFFE4
:105CD000FFFFFFFFFFFFFFFFFFFFFFFFFFFFFFFFD4
:105CE000FFFFFFFFFFFFFFFFFFFFFFFFFFFFFFFFC4
:105CF000FFFFFFFFFFFFFFFFFFFFFFFFFFFFFFFFB4
:105D0000FFFFFFFFFFFFFFFFFFFFFFFFFFFFFFFFA3
:105D1000FFFFFFFFFFFFFF0000000000000000008A
:105D2000FFFFFFFFFFFFFFFFFFFFFFFFFFFFFFFF83
:105D3000FFFFFFFFFFFFFFFFFFFFFF00000000006E
:105D400000000000FFFFFFFFFFFFFFFFFFFFFFFF5F
:105D5000FFFFFFFFFFFFFFFFFFFFFFFFFFFFFF0052
:105D60000000000000000000FFFFFFFFFFFFFFFF3B
:105D7000FFFFFFFFFFFFFFFFFFFFFFFFFFFFFFFF33
:105D8000FFFFFF000000000000000000FFFFFFFF1A
:105D9000FFFFFFFFFFFFFFFFFFFFFFFFFFFFFFFF13
:105DA000FFFFFFFFFFFFFFFFFFFFFFFFFFFFFFFF03
:105DB000FFFFFFFFFFFFFFFFFFFFFFFFFFFFFFFFF3
:105DC000FFFFFFFFFFFFFFFFFFFFFFFFFFFFFFFFE3
:105DD000FFFFFFFFFFFFFFFFFFFFFFFFFFFFFFFFD3
:105DE000FFFFFFFFFFFFFFFFFFFFFFFFFFFFFFFFC3
:105DF000FFFFFFFFFFFFFFFFFFFFFFFFFFFFFFFFB3
